:0300000002004EAD
:100008000000E2FBEAF2802C0000E0FBEAF080242A
:10001800E6B50202EBF62200E2B50202EBF222009C
:10002800E0B50202EBF02230F6E0A88220F5D3EA30
:10003800C6F582228B822230F6E6A88220F5D98086
:01004800CFE8
:0300AD0002004905
:030049000200B002
:1000B0001201369006007401F0E4A3F090C20075BE
:1000C000F00112014E74F3C0E07438C0E07480C0D7
:1000D000E0122E9F1581158115817582001211F78E
:1000E0007582011211F71206B374FCC0E07438C0B7
:1000F000E07480C0E0122E9F158115811581900B50
:100100001EE4F0A3F0900B20F0900B21F0900B2256
:10011000F0900B23F0A3F0758208122B78E5C12034
:10012000E60985088285098312004C122AD112291A
:060130003D12129580E76C
:1038F300537461727475700A0052656164790A00C9
:0600A7007508007509F464
:1001360075A15575A1AA53B3E043B30675B2D87538
:10014600A1FF90000702064BAF82AE83ADF0FC9094
:100156000602EFF0EEA3F0EDA3F0ECA3F09006009C
:10016600E0F5F0A3E045F0600C43C60143C4084344
:10017600C50C43CE10C29FD29EC29DD29C4387809F
:10018600900602E0FCA3E0FDA3E0FEA3E0FF900BD7
:1001960032ECF0EDA3F0EEA3F0EFA3F0908D8075B6
:1001A600F05BE4122D42AC82AD830CBC00010DED78
:1001B600C313CC13CC740F55894420F58943C9A0C9
:1001C600C3E49CF58DD28ED2992210980280FB85CD
:1001D600998222E582900606F0E0F5993099FDD2E3
:1001E6009922E582900609F090060A74C4F074001C
:1001F600A3F07440A3F090060D74BAF07400A3F057
:100206007440A3F090061074BCF07400A3F0744020
:10021600A3F090061374BEF07400A3F07440A3F02C
:1002260090061674C5F07400A3F07440A3F090060F
:100236001974BBF07400A3F07440A3F090061C740C
:10024600BDF07400A3F07440A3F090061F74BFF0D5
:100256007400A3F07440A3F0900608E0FF24F95060
:100266000122EF2F2F90026F730202840203020213
:1002760003800203D40204510204D002054D900605
:1002860009E0FF8FF005F07401800225E0D5F0FB50
:10029600F452C6EF75F003A4FFAEF0240AF582EE21
:1002A6003406F583E0FBA3E0FCA3E0FD8B828C83A0
:1002B6008DF01238D3FA900607E0F5F005F07401D8
:1002C600800225E0D5F0FBF4F952028B828C838DF7
:1002D600F0EA122E36EF2416F582EE3406F583E0A8
:1002E600FDA3E0FEA3E0FF8D828E838FF01238D34C
:1002F60052018D828E838FF0E9022E36900609E038
:10030600FF8FF005F07401800225E0D5F0FBF45272
:10031600C6EF75F003A4FFAEF0240AF582EE3406AC
:10032600F583E0FBA3E0FCA3E0FD8B828C838DF0DC
:100336001238D3FA900607E0F5F005F07401800252
:1003460025E0D5F0FBF9F452028B828C838DF0EA1E
:10035600122E36EF2416F582EE3406F583E0FDA361
:10036600E0FEA3E0FF8D828E838FF01238D3420128
:100376008D828E838FF0E9022E36900609E0FF8F7C
:10038600F005F07401800225E0D5F0FBF452C6EFCB
:1003960075F003A4240AF582740635F0F583E0FDB2
:1003A600A3E0FEA3E0FF8D828E838FF01238D3FC8C
:1003B600900607E0F5F005F07401800225E0D5F01F
:1003C600FBF442048D828E838FF0EC022E3690066B
:1003D60009E0FF8FF005F07401800225E0D5F0FBFF
:1003E60042C6EF75F003A4FFAEF0240AF582EE34A0
:1003F60006F583E0FBA3E0FCA3E0FD8B828C838DF6
:10040600F01238D3FA900607E0F5F005F074018093
:100416000225E0D5F0FBF4F952028B828C838DF035
:10042600EA122E36EF2416F582EE3406F583E0FD49
:10043600A3E0FEA3E0FF8D828E838FF01238D352A5
:10044600018D828E838FF0E9022E36900609E0FF39
:100456008FF005F07401800225E0D5F0FB42C6EF6F
:1004660075F003A4FFAEF0240AF582EE3406F58398
:10047600E0FBA3E0FCA3E0FD8B828C838DF01238B9
:10048600D3FA900607E0F5F005F07401800225E046
:10049600D5F0FBF942028B828C838DF0EA122E3660
:1004A600EF2416F582EE3406F583E0FDA3E0FEA305
:1004B600E0FF8D828E838FF01238D3FCE9F452046C
:1004C6008D828E838FF0EC022E36900609E0FF8F28
:1004D600F005F07401800225E0D5F0FB42C6EF7509
:1004E600F003A4FFAEF0240AF582EE3406F583E0AD
:1004F600FBA3E0FCA3E0FD8B828C838DF01238D346
:10050600FA900607E0F5F005F07401800225E0D5C3
:10051600F0FBF9F452028B828C838DF0EA122E36B0
:10052600EF2416F582EE3406F583E0FDA3E0FEA384
:10053600E0FF8D828E838FF01238D342018D828E3A
:10054600838FF0E9022E36900609E0FF8FF005F062
:100556007401800225E0D5F0FB42C6EF75F003A4D6
:10056600FFAEF0240AF582EE3406F583E0FBA3E045
:10057600FCA3E0FD8B828C838DF01238D3FA9006B3
:1005860007E0F5F005F07401800225E0D5F0FBF9EF
:1005960042028B828C838DF0EA122E36EF2416F5FA
:1005A60082EE3406F583E0FDA3E0FEA3E0FF8D8234
:1005B6008E838FF01238D342018D828E838FF0E9BD
:1005C600022E36AF83E582900622F0EFA3F0109953
:1005D6000280FB900622E0FEA3E0FF8E998E828FBA
:1005E600832210980280FBAE997F008E828F832231
:1005F600AF83E582900624F0EFA3F0900624E0FE98
:10060600A3E0FFEE4F603505A105A105A105A105F3
:10061600A105A105A105A105A105A105A105A105A4
:10062600A105A105A105A105A105A105A11EBEFF64
:10063600011F900624EEF0EFA3F080C7900624EE8B
:10064600F0EFA3F022AF83E582900626F0EFA3F049
:10065600900626E0FEA3E0FFEE4F601D9003E8C083
:1006660007C0061205F6D006D0071EBEFF011F9072
:100676000626EEF0EFA3F080DF900626EEF0EFA35D
:10068600F022E58290082FF0E0FF75F003A42429FC
:10069600FD740835F0FE8D828E83E4F08D828E83A4
:1006A600A3F0EF600475E5002275E40022C2EA7546
:1006B600E28075E3009024477448F090244CE4F0FF
:1006C600A3F090244E04F0E4A3F0F5D4F5D675E239
:1006D6008975D24075D8FF75820012068875820129
:1006E60012068875E10322E582900830F0E5E354AE
:1006F60080FFE0547F4FF5E322E582900831F0E079
:10070600600753E2BF53D27F2243E24022E5829044
:100716000832F09006287408F07582001206ED750E
:1007260082011206FF900832E0FFE0701374FB5559
:10073600E44402F5E490000F12064B53E4FD8014E6
:10074600BF011174FB55E54402F5E590000F120652
:100756004B53E5FD9000FA1205F6C2D822E58290C9
:100766000833F0E075F003A42429FE740835F0FF81
:100776008E828F83E0FDBD010050078E828F8374C9
:1007860001F0900833E0FF7049E5DB20E30302083F
:1007960021E5E420E035E5DB30E21AEF75F003A44D
:1007A6002429FD740835F0FE8D828E83A3A3E4F020
:1007B60043E4048016EF75F003A42429FD7408357C
:1007C600F0FE8D828E83A3A37401F043E40175824B
:1007D6000022BF0146E5DB30E741E5E520E035E5EF
:1007E600DB30E61AEF75F003A42429FD740835F012
:1007F600FE8D828E83A3A3E4F043E5048016EF7595
:10080600F003A42429FE740835F0FF8E828F83A39B
:10081600A37401F043E5017582002275821622E574
:1008260082900835F0E075F003A42429FE7408359B
:10083600F0FF8E828F83A3E0F582C007C006120602
:10084600EDD006D0078E828F83A3A3E0F582020641
:10085600FFE582900839F0900836E0FF8FD48FD6F6
:1008660090083AE4F0A3F0900839E0FEC4540FFD76
:10087600BD0103ED8001E4F524E4BD090104FB900C
:100886000837E0F9A3E0FA8ED5C2D97521C87522DA
:1008960000E5214522602C20D929900001C007C01F
:1008A60006C005C003C002C0011205F6D001D00281
:1008B600D003D005D006D007152174FFB521021547
:1008C6002280CE75D50020D9047582FE2220D90358
:1008D6000209CC30DE0475820022E5D9540FF523D7
:1008E600740EB5230474018001E4F52160077420B9
:1008F6004523F58222740AB5230474018001E4F8C5
:10090600603FE94A700A74204523F5248524822233
:10091600C00389038A04C3EB94FFEC94FFD0035011
:100926000519B9FF011AC00390083AE024FFFBA39A
:10093600E034FFFC90083AEBF0ECA3F0D003020998
:10094600CFE5247006EB702CBD0D7730DE04758282
:1009560000227402B5230475820022E5217003E8A3
:10096600600774204523F58222E523605C742045E8
:1009760023F5822230DE0475820022EF600D740BAF
:10098600B5230474018001E4FC800B7403B52304D1
:1009960074018001E4FCEC600475820022E521709C
:1009A60003E8600774204523F582227403B5230704
:1009B600740BB523028012E523600E74204523F5DF
:1009C60082227582FE2275D8FF90000FC007C006EE
:1009D600C005C003C002C0011205F6D001D002D086
:1009E60003D005D006D00790083AE02401F0A3E032
:1009F6003400F090083AE0F8A3E0FCC3E894C8ECB1
:100A06009400500302088D75822022AF83E5829000
:100A16000841F0EFA3F07443C0E07439C0E074807D
:100A2600C0E0122E9F158115811581900841E0FEC8
:100A3600A3E0FF900845EEF0EFA3F090083CE0FB42
:100A4600A3E0FCA3E0FD9000C8C007C006C005C037
:100A560004C0031205F6D003D004D005D006D00793
:100A6600EB4C600E8B828C838DF0E4122E36A31233
:100A76002E3675D708900836E4F09008377410F0D3
:100A86007427A3F07582D0C007C006C005C004C095
:100A960003120857AA82D003D004D005D006D00787
:100AA600EA60038A8222C006C00775D6D075D4D004
:100AB60075D701900107E0FA7900900106E07F0002
:100AC6004201EF420289258A26900843E525F0E592
:100AD60026A3F0D007D006E52545267003020D9F14
:100AE600EE4F7003020D9F900100E020E703020C19
:100AF60034C005C004C003C025C0267455C0E074C8
:100B060039C0E07480C0E0122E9FE58124FBF58198
:100B1600D003D004D005900843E0FEA3E0FF4E705A
:100B260003020C2E90012CC007C006C005C004C0ED
:100B3600031205F6900836E5D4F09008377410F0E5
:100B46007427A3F0758290120857AA82D003D004A6
:100B5600D005D006D007EA60038A8222A9D17A009E
:100B6600C3E99EEA9F5004A9D180048E018F0289B1
:100B760007900843E0FAA3E0FE8F007F00EAC398DF
:100B8600FAEE9FFE900843EAF0EEA3F0EB4C6024E9
:100B96008B828C838DF01238D3FAA31238D3FEE8F9
:100BA6002AF8EF3EFF8B828C838DF0E8122E36A357
:100BB600EF122E36900845E0FEA3E0FF7A00C3EA66
:100BC600995018EA2EF527E43FF5288A82758300A6
:100BD600E0852782852883F00A80E3900845E0FEB9
:100BE600A3E0FF900845E92EF0E43FA3F0AED17FE5
:100BF60000C005C004C003C006C0077471C0E0741D
:100C060039C0E07480C0E0122E9FE58124FBF58197
:100C1600D003D004D005E5D1600E900628E0FFC3CE
:100C2600E5D19F4003020B1C75D700020D9FC0053E
:100C3600C004C003C025C0267484C0E07439C0E077
:100C46007480C0E0122E9FE58124FBF581D003D08D
:100C560004D005900843E0FEA3E0FF4E7003020DAA
:100C66009F9000C8C007C006C005C004C003120597
:100C7600F6D003D004D005D006D007900628E0F9B8
:100C86007A00C3EE99EF9A920050048E018F028982
:100C9600D7900845E0FEA3E0FFE5D72EFEE43FFF30
:100CA600900845EEF0EFA3F08E828F83A3E0FABAA8
:100CB6000951900B79E0C0F0F5F0740165F0D0F0C1
:100CC60060027401FA900B79F08E828F83EAF090BD
:100CD6000B79E0FE7F008A017A00C005C004C003DC
:100CE600C006C007C001C00274A0C0E07439C0E0ED
:100CF6007480C0E0122E9FE58124F9F581D003D0DF
:100D060004D005AED77F00C005C004C003C006C02E
:100D16000774B6C0E07439C0E07480C0E0122E9F3C
:100D2600E58124FBF581900836E5D6F09008377406
:100D360010F07427A3F0758210120857AF82D00303
:100D4600D004D005EF60038F8222AFD7900843E02E
:100D5600FAA3E0FE8F017F00EAC399FAEE9FFE90A8
:100D66000843EAF0EEA3F0EB4C7003020C598B82B9
:100D76008C838DF01238D3FEA31238D3FFA9D77A0D
:100D860000E92EFEEA3FFF8B828C838DF0EE122E59
:100D960036A3EF122E36020C599000C81205F6E55E
:100DA600D760047F9080027F1090083674C0F09060
:100DB60008377410F07427A3F08F82120857E58263
:100DC600FF60038F8222E5D77003F58222E5D1709A
:100DD60003F5822275821722AF83E582900848F0D8
:100DE600EFA3F0900847E0FFFD7E00C007C006C0F5
:100DF60005C005C00674C8C0E07439C0E07480C080
:100E0600E0122E9FE58124FBF581D005D006D007A0
:100E1600900848E0FBA3E0FC7A00C3EA9F50168ADC
:100E2600007901EA2BF582E43CF583E49388828914
:100E360083F00A80E5C005C00674DFC0E07439C0DF
:100E4600E07480C0E0122E9FE58124FBF58122909C
:100E560006287408F074F2C0E07439C0E07480C0EB
:100E6600E0122E9F1581158115819008477408F0B0
:100E7600903903120DDE90083C744AF07408A3F012
:100E8600E4A3F090083FF07402A3F0900629120A3A
:100E960011E582FF60038F82227407C0E0743AC0B6
:100EA600E07480C0E0122E9F158115811581900691
:100EB60030E0900628F0903909E493FF90084AE064
:100EC600FDA3E0FE7C00C3ED9FEE9C50197434C078
:100ED600E0743AC0E07480C0E0122E9F158115813F
:100EE60015817582172275820022E58290084CF0E2
:100EF6009008477408F090391B120DDE90084CE0FC
:100F0600FF900102F090083CE4F0A3F0A3F09008F3
:100F16003FF0A3F0900000C007120A11AE82D0077E
:100F2600EE60038E82228F057E00C007C005C006D4
:100F3600745EC0E0743AC0E07480C0E0122E9FE593
:100F46008124FBF581D0078F821206ED9000641292
:100F5600064B75820022E58290084DF09008477492
:100F660008F090392B120DDE90084DE0900102F04A
:100F760090083CE4F0A3F0A3F090083FF0A3F090B3
:100F86000000020A119008477408F0903923120DE8
:100F9600DE90083CE4F0A3F0A3F090083FF0740262
:100FA600A3F0900629020A11AF83E582900853F058
:100FB600EFA3F0900853E0FEA3E0FF8E828F83E05C
:100FC6007C0024FEFDEC34FFA2E713CD13CD8E8208
:100FD6008F83A3E0FCBC0302800475820022900884
:100FE6004EE0FBA3E0FC8B2B8C2C7800C3E89D50D5
:100FF60078900850E0F9A3E0FAE924FFF529EA34ED
:10100600FFF52A88017A00C3E99529EA952A5059FD
:1010160088017A00E929F529EA33F52A7403252996
:10102600F9E4352AFAE92EF9EA3FFA89828A83E059
:10103600600FE8252BF582E4352CF583743FF080AC
:1010460025C005E82BF52DE43CF52E74022529FA7A
:10105600E4352AFDEA2EF582ED3FF583E0852D8203
:10106600852E83F0D005088083E82BF582E43CF5D5
:1010760083E4F0FF900852E0FE0E900B1EEDF0EFB9
:10108600A3F0900B20EEF0900B217434F0900B221D
:101096007456F0900B23EBF0ECA3F0758205122B3F
:1010A6007875820122AF83E582900855F0EFA3F0B0
:1010B600900855E0FEA3E0FF7C007D008E828F83C2
:1010C600E0FB7A00C3EC9BED64808AF063F08095C8
:1010D600F0503CEC2EF582ED3FF583E0FB7A00C044
:1010E60007C006C005C004C003C002746EC0E07429
:1010F6003AC0E07480C0E0122E9FE58124FBF581A2
:10110600D004D005D006D0070CBC00B00D80AD745D
:1011160076C0E0743AC0E07480C0E0122E9F15815C
:1011260015811581229008477408F090390B120D2D
:10113600DE90083C7457F07408A3F0E4A3F090081E
:101146003FF07402A3F0900629120A11E582FF60AF
:10115600038F8222903911E493FF900857E0FDA394
:10116600E0FE7C00C3ED9FEE9C5004758217229032
:10117600062BE0FF7E0090062CE0FCE42FFFEC3E01
:10118600FE9008477408F090390BC007C006120D90
:10119600DED006D0078F05900106EDF08E07900190
:1011A60007EFF090083C7457F07408A3F0E4A3F03E
:1011B60090083FF07402A3F0900629120A11E58206
:1011C600FF60038F8222758200229008477408F020
:1011D600903913120DDE90083C7459F07408A3F090
:1011E600E4A3F090083FF07402A3F0900629020AE7
:1011F60011E5829008BBF0E0FF75F010A4249BFD7A
:10120600740835F0FE8D828E83E4F0A3F0A3F0A37C
:10121600F08D828E83A3A3A3A3F0A3F0A3F0A3F083
:1012260074082DF582E43EF583E4F0A3F0A3F0A361
:10123600F0740C2DF582E43EF583E4F0A3F0A3F000
:10124600A3F0FEEE75F008A4245BFC740835F0FDEF
:1012560074012CFAE43DFB8A828B83E0B507298C66
:10126600828D83E4F08A828B83F08C828D83A3A3A4
:10127600F08C828D83A3A3A3F08C828D83A3A3A37A
:10128600A3F0A3F0A3F0A3F00EBE080040B5227FA2
:1012960000EF75F008A4245BFD740835F0FE8D039D
:1012A6008E048B828C83E070030213C98D828E8339
:1012B600A3E0FC900834E4F08C82C007C006C005A9
:1012C600120825D005D006D0078D828E83A3A3A34E
:1012D600E0FE747F5E4490FDEE30E7047EC080023F
:1012E6007E00900836EEF0900837E4F0A3F08D8289
:1012F600C007120857E582D00760030213C9EF75CD
:10130600F008A4245BFD740835F0FE74032DFBE49D
:101316003EFC8B828C83E0FA6302808B828C83EAAC
:10132600F09008BCE5D1F0E0FAE070030213C9B210
:10133600968A017A008D828E83A3A3A3A3E0F88BFD
:10134600828C83E0FB53037F8D828E83A3E075F04E
:1013560010A4249BFD740835F0FE8D828E83E0F583
:101366002F8D828E83A3A3A3A3E0F53074082DF5F9
:1013760082E43EF583E0FC740C2DF582E43EF583B1
:10138600E0FE900B26E9F0EAA3F0900B28E8F09037
:101396000B29EFF0900B2AEBF0900B2B7400F074F6
:1013A60000A3F0900B2DE52FF0900B2EE530F0907A
:1013B6000B2FECF0900B30EEF0758204C007122C68
:1013C6004DD0070FBF0800500302129722AF83E5E6
:1013D600829008C0F0EFA3F09008C2E4F0A3F0906A
:1013E60008C4F09008C5F09008BFE075F008A42482
:1013F6005BFE740835F0FF9008C0E0F536A3E0F513
:1014060037AA36AB379008BDE0F534A3E0F5359042
:1014160008C2E0F531A3E0F532C3E5319534E53293
:101426009535400122C006C007E5312536F582E52F
:10143600323537F583E0FF9008C674FC5FF074031D
:101446005FF5319008C7F09008C8E4F0A3F0A3F068
:10145600A3F07403B531028006D007D006800BD006
:1014660007D0069008C7E53104F09008C7E0F531CB
:10147600753300C3E5339531505DC006C00790084B
:10148600C2E0FEA3E0FF0EBE00010FA8337900E81C
:101496002EFEE93FFFEE2AF582EF3BF583E0F8E406
:1014A600FEFFE533C40354F8F5F005F0800CE82898
:1014B600F8E933F9EE33FEEF33FFD5F0F19008C8C3
:1014C600E048F0A3E049F0A3E04EF0A3E04FF005BA
:1014D60033D007D006809C9008C6E0FDE4BDC0016D
:1014E60004FD7C009008C4E0F87900ED60087538CA
:1014F600017539008005E4F538F539C006C007E8FE
:10150600C39538F8E99539F98C067F00C3EE98EF54
:10151600648089F063F08095F0D007D0065030C023
:1015260007C006C005C004C003C0027478C0E074DA
:101536003AC0E07480C0E0122E9F15811581158196
:10154600D002D003D004D005D006D0070C809590E9
:1015560008C6E0FDBD04028063BD080302177EBD18
:101566001403021B08BD1803021BF0BD2403021B53
:1015760042BD2803021C2ABD3403021B7CBD440362
:10158600021BB6BD6403021CE5BD7403021DCDBD7E
:101596008003021D1FBD8403021E07BD9003021DAA
:1015A60059BD9403021E41BDA003021C64BDB003D5
:1015B600021D93BDC003021CA5021E7A9008C8E056
:1015C600F53AA3E0F53BA3E0F53CA3E0F53DC3E522
:1015D6003B94FFE53C9400E53D94005006A93AACE7
:1015E6003B800479007CFFC007C006C004C003C06E
:1015F60002C001747DC0E0743AC0E07480C0E0129D
:101606002E9F158115811581D001D002D003D004FB
:10161600D006D007B90106BC00030216BFB90705FC
:10162600BC00028044B90805BC00028014B9090553
:10163600BC0002805CB90006BCFF030216E6021776
:101646001FC007C006C003C0027489C0E0743AC058
:10165600E07480C0E0122E9F158115811581D0029D
:10166600D003D006D007021756C007C006C003C075
:1016760002748EC0E0743AC0E07480C0E0122E9FFF
:10168600158115811581D002D003D006D007021727
:1016960056C007C006C003C002749EC0E0743AC0BC
:1016A600E07480C0E0122E9F158115811581D0024D
:1016B600D003D006D007021756C007C006C003C025
:1016C6000274A5C0E0743AC0E07480C0E0122E9F98
:1016D600158115811581D002D003D006D007807000
:1016E600C007C006C003C0029008C8E0C0E0A3E07F
:1016F600C0E0A3E0C0E0A3E0C0E074BEC0E0743A7E
:10170600C0E07480C0E0122E9FE58124F9F581D0F7
:1017160002D003D006D0078037C007C006C003C07A
:10172600029008C8E0C0E0A3E0C0E0A3E0C0E0A3E8
:10173600E0C0E074D5C0E0743AC0E07480C0E01246
:101746002E9FE58124F9F581D002D003D006D0077B
:10175600C007C006C003C0027476C0E0743AC0E099
:101766007480C0E0122E9F158115811581D002D09C
:1017760003D006D007021EC19008C5E07036C0022D
:10178600C00374042EF53AE43FF53B9008C8E0F830
:10179600A3E0FAA3E0FBA3E0FC853A82853B83E85D
:1017A600F0EAA3F0EBA3F0ECA3F09008C57401F007
:1017B600D003D002C007C006C003C00274E5C0E073
:1017C600743AC0E07480C0E0122E9F158115811511
:1017D60081D002D003D006D0079008C8E0F53AA31E
:1017E600E0F53BA3E0F53CA3E0F53DC37438953A3C
:1017F600E4953BE4953CE4953D5003021AB3E53A83
:10180600240B83F582E53A243D83F583E47386AEA3
:10181600D6FE264E769EC6EEB3B3B3B3B3B3B3B31A
:10182600B3B3B3B3B3B3B3B3B3B3B3B3B3B3B3B382
:10183600B3B3B3B3B3B3B3B3B3B3B3B3B3B3163E84
:1018460065B3B3B3B3B38C18181818191919191945
:10185600191A1A1A1A1A1A1A1A1A1A1A1A1A1A1AE3
:101866001A1A1A1A1A1A1A1A1A1A1A1A1A1A1A1AD2
:101876001A1A1A1A1A1A1A1A1A1A1A1A1A1A1A1AC2
:10188600C007C006C003C00274ECC0E0743AC0E0F2
:101896007480C0E0122E9F158115811581D002D06B
:1018A60003D006D007021AE0C007C006C003C00274
:1018B60074F4C0E0743AC0E07480C0E0122E9F1544
:1018C6008115811581D002D003D006D007021AE017
:1018D600C007C006C003C00274FCC0E0743AC0E092
:1018E6007480C0E0122E9F158115811581D002D01B
:1018F60003D006D007021AE0C007C006C003C00224
:101906007402C0E0743BC0E07480C0E0122E9F15E4
:101916008115811581D002D003D006D007021AE0C6
:10192600C007C006C003C002740BC0E0743BC0E031
:101936007480C0E0122E9F158115811581D002D0CA
:1019460003D006D007021AE0C007C006C003C002D3
:101956007414C0E0743BC0E07480C0E0122E9F1582
:101966008115811581D002D003D006D007021AE076
:10197600C007C006C003C002741CC0E0743BC0E0D0
:101986007480C0E0122E9F158115811581D002D07A
:1019960003D006D007021AE0C007C006C003C00283
:1019A6007425C0E0743BC0E07480C0E0122E9F1521
:1019B6008115811581D002D003D006D007021AE026
:1019C600C007C006C003C002742CC0E0743BC0E070
:1019D6007480C0E0122E9F158115811581D002D02A
:1019E60003D006D007021AE0C007C006C003C00233
:1019F6007442C0E0743BC0E07480C0E0122E9F15B4
:101A06008115811581D002D003D006D007021AE0D5
:101A1600C007C006C003C0027459C0E0743BC0E0F2
:101A26007480C0E0122E9F158115811581D002D0D9
:101A360003D006D007021AE0C007C006C003C002E2
:101A4600745BC0E0743BC0E07480C0E0122E9F154A
:101A56008115811581D002D003D006D007807BC0C6
:101A660007C006C003C002745DC0E0743BC0E074EA
:101A760080C0E0122E9F158115811581D002D003FA
:101A8600D006D0078054C007C006C003C002745FEA
:101A9600C0E0743BC0E07480C0E0122E9F15811533
:101AA600811581D002D003D006D007802DC007C093
:101AB60006C003C002C03AC03BC03CC03D74D5C09E
:101AC600E0743AC0E07480C0E0122E9FE58124F9EC
:101AD600F581D002D003D006D007C007C006C003E8
:101AE600C0027476C0E0743AC0E07480C0E0122E82
:101AF6009F158115811581D002D003D006D007022B
:101B06001EC1C007C006C003C0029008C8E0C0E0FE
:101B1600A3E0C0E0A3E0C0E0A3E0C0E07465C0E0DD
:101B2600743BC0E07480C0E0122E9FE58124F9F575
:101B360081D002D003D006D007021EC1C007C0065E
:101B4600C003C0029008C8E0C0E0A3E0C0E0A3E084
:101B5600C0E0A3E0C0E07476C0E0743BC0E07480EF
:101B6600C0E0122E9FE58124F9F581D002D003D082
:101B760006D007021EC1C007C006C003C0029008F7
:101B8600C8E0C0E0A3E0C0E0A3E0C0E0A3E0C0E09E
:101B96007487C0E0743BC0E07480C0E0122E9FE5FD
:101BA6008124F9F581D002D003D006D007021EC1E8
:101BB600C007C006C003C0029008C8E0C0E0A3E0AA
:101BC600C0E0A3E0C0E0A3E0C0E07499C0E0743BCD
:101BD600C0E07480C0E0122E9FE58124F9F581D023
:101BE60002D003D006D007021EC1C007C006C0033C
:101BF600C0029008C8E0C0E0A3E0C0E0A3E0C0E0F7
:101C0600A3E0C0E07487C0E0743BC0E07480C0E02D
:101C1600122E9FE58124F9F581D002D003D006D09B
:101C260007021EC1C007C006C003C0029008C8E074
:101C3600C0E0A3E0C0E0A3E0C0E0A3E0C0E0749988
:101C4600C0E0743BC0E07480C0E0122E9FE58124A2
:101C5600F9F581D002D003D006D007021EC1C00715
:101C6600C006C003C0029008C8E0C0E0A3E0C0E020
:101C7600A3E0C0E0A3E0C0E074ABC0E0743BC0E00A
:101C86007480C0E0122E9FE58124F9F581D002D040
:101C960003D006D0079008C4E02401F0021EC1C09C
:101CA60007C006C003C0029008C8E0C0E0A3E0C0B9
:101CB600E0A3E0C0E0A3E0C0E074C1C0E0743BC0B4
:101CC600E07480C0E0122E9FE58124F9F581D002F0
:101CD600D003D006D0079008C4E014F0021EC1C09D
:101CE60007C006C003C0029008C8E0C0E0A3E0C079
:101CF600E0A3E0C0E0A3E0C0E074D5C0E0743BC060
:101D0600E07480C0E0122E9FE58124F9F581D002AF
:101D1600D003D006D007021EC1C007C006C003C04C
:101D2600029008C8E0C0E0A3E0C0E0A3E0C0E0A3E2
:101D3600E0C0E074E3C0E0743BC0E07480C0E01231
:101D46002E9FE58124F9F581D002D003D006D00775
:101D5600021EC1C007C006C003C0029008C8E0C08A
:101D6600E0A3E0C0E0A3E0C0E0A3E0C0E074F2C0FE
:101D7600E0743BC0E07480C0E0122E9FE58124F938
:101D8600F581D002D003D006D007021EC1C007C01D
:101D960006C003C0029008C8E0C0E0A3E0C0E0A30C
:101DA600E0C0E0A3E0C0E07402C0E0743CC0E074B0
:101DB60080C0E0122E9FE58124F9F581D002D00380
:101DC600D006D007021EC1C007C006C003C00290DD
:101DD60008C8E0C0E0A3E0C0E0A3E0C0E0A3E0C024
:101DE600E07413C0E0743CC0E07480C0E0122E9F23
:101DF600E58124F9F581D002D003D006D007021E72
:101E0600C1C007C006C003C0029008C8E0C0E0A376
:101E1600E0C0E0A3E0C0E0A3E0C0E07424C0E0744A
:101E26003CC0E07480C0E0122E9FE58124F9F58164
:101E3600D002D003D006D007021EC1C007C006C01C
:101E460003C0029008C8E0C0E0A3E0C0E0A3E0C081
:101E5600E0A3E0C0E07433C0E0743CC0E07480C02E
:101E6600E0122E9FE58124F9F581D002D003D00639
:101E7600D0078047A9317C008D007D00C007C006D1
:101E8600C003C0029008C8E0C0E0A3E0C0E0A3E041
:101E9600C0E0A3E0C0E0C001C004C000C0057445B6
:101EA600C0E0743CC0E07480C0E0122E9FE581243F
:101EB600F5F581D002D003D006D0079008C7E0FC24
:101EC6007D000CBC00010D9008C2E0F8A3E0F9EC1F
:101ED60028F8ED39F99008C2E8F0E9A3F0021415E4
:101EE600E5829008CCF0E075F008A4245BFE740847
:101EF60035F0FF74022EFEE43FFF8E828F83E0FDF5
:101F06007C00C007C006C005C0047485C0E0743CF0
:101F1600C0E07480C0E0122E9FE58124FBF581901D
:101F260008477408F0903933120DDED006D0078EBC
:101F3600828F83E0900104F090083C74CDF0740821
:101F4600A3F0E4A3F090083FF0A3F0900629C007A1
:101F5600C006120A119008477408F090393B120D1A
:101F6600DED006D0078E828F83E0900104F09001C8
:101F760006E4F09001077402F090083C74CDF0740A
:101F860008A3F0E4A3F090083FF07402A3F09006D3
:101F960029120A11E582FF60038F82227E007F00EC
:101FA6009008CDE0FCA3E0FDC3EE9CEF9D5036EE1D
:101FB6002429F582EF3406F583E0FD7C00C007C0D6
:101FC60006C005C004746EC0E0743AC0E07480C0F8
:101FD600E0122E9FE58124FBF581D006D0070EBEC8
:101FE60000BE0F80BB7476C0E0743AC0E07480C057
:101FF600E0122E9F1581158115819008CDE0FEA374
:10200600E0FF9008CCE0FD75F008A4245BFB7408A3
:1020160035F0FC8B828C83A3A3E0FA8B828C83A39E
:10202600E0FC900B1EEEF0EFA3F0900B20EDF0908D
:102036000B21EAF0900B22ECF0900B237429F0743C
:1020460006A3F0758207C005122B78D0059008CD3F
:10205600E0FEA3E0FF9008BDEEF0EFA3F09008BF0E
:10206600EDF09006291213D3758200229008CFE076
:10207600FEA3E0FF8E828F83A3A3E0FD7C00C00752
:10208600C006C005C00474AAC0E0743CC0E07480F9
:10209600C0E0122E9FE58124FBF581D006D0078E85
:1020A600828F83A3A3A3A3A3E0FD7C00C007C00681
:1020B600C005C00474B8C0E0743CC0E07480C0E0E1
:1020C600122E9FE58124FBF581D006D00774062EDB
:1020D600F582E43FF583E0FD7C00C007C006C0053D
:1020E600C00474C4C0E0743CC0E07480C0E0122E2A
:1020F6009FE58124FBF581D006D00774072EF58273
:10210600E43FF583E0FF7E00C007C00674D4C0E05C
:10211600743CC0E07480C0E0122E9FE58124FBF57C
:102126008122AF83E5829008D3F0EFA3F09008D325
:10213600E0FEA3E0FF8E828F83A3A3E0FF7E00C0B4
:1021460007C00674EDC0E0743CC0E07480C0E012C5
:102156002E9FE58124FBF5819008D1E0FEA3E0FFE8
:102166008E828F83A3A3E0FDFB53030F7C00EDC497
:10217600540FFD7A008E828F83A3A3A3E0F8530049
:102186000F7900C007C006C003C004C005C002C066
:1021960000C0017402C0E0743DC0E07480C0E0126B
:1021A6002E9FE58124F7F581D006D0078E828F8396
:1021B600A3A3A3A3E0FD7C00C007C006C005C0041E
:1021C6007411C0E0743DC0E07480C0E0122E9FE53B
:1021D6008124FBF581D006D00774062EF582E43FF4
:1021E600F583E0FF7E00C007C0067428C0E0743D9A
:1021F600C0E07480C0E0122E9FE58124FBF58122A9
:1022060022E5829008D5F09008D6E4F09008D5E053
:10221600FFFEFD75F003A42429F53E740835F0F59C
:102226003F8F43754200900064C007C006C0051288
:10223600064B90006412064B8543821211F78543C4
:1022460082120713D005D006D0077800900001C08F
:1022560007C006C005C00012064BD000D005D00648
:10226600D0078F82C007C006C005C000120763E50D
:1022760082D000D005D006D007600608B8640040BA
:10228600CBB86441C0058F82C007C006C0051206E0
:1022960088D005D006D0078F007D00C007C006C0D5
:1022A60005C000C0057438C0E0743DC0E07480C04D
:1022B600E0122E9FE58124FBF581D005D006D007DC
:1022C600D00502292BC005900834E4F08E82C007A1
:1022D600C006C005120825D005D0068E007D00C0B8
:1022E60006C005C000C005745BC0E0743DC0E07464
:1022F60080C0E0122E9FE58124FBF581D005120EE9
:1023060055AD82D006D0079008D6EDF0EDD0056029
:10231600030228C0C00590062DE0F87D00C007C066
:1023260006C005C000C0057475C0E0743DC0E07409
:1023360080C0E0122E9FE58124FBF581D005900632
:1023460030E0F87D00C005C000C0057486C0E074AA
:102356003DC0E07480C0E0122E9FE58124FBF5812C
:10236600D005D006EE75F010A4249BF8740835F05D
:10237600FD88408D41900631E0F97A007B007C00B3
:10238600854082854183E9F0EAA3F0EBA3F0ECA354
:10239600F0740428F540E43DF541900632E0F97A00
:1023A60000854082854183E9F0EAA3F0EBA3F0ECD7
:1023B600A3F0740828F540E43DF541900633E0F9B2
:1023C6007A00854082854183E9F0EAA3F0EBA3F029
:1023D600ECA3F0740C28F8E43DFD900634E0F97C9B
:1023E6000088828D83E9F0EAA3F0EBA3F0ECA3F07A
:1023F600900629C006C0051210ABD005D00690394C
:102406001DE4932EF540854082C006120EF0AD8283
:10241600D006D0079008D6EDF0EDD005600302286F
:10242600C0EE75F003A42429FB740835F0FC8B82FA
:102436008C83A3E540F0C007C006C005120F8B9041
:1024460006291210ABD005D00690084E7429F074F8
:1024560006A3F0900850E4F07402A3F0900852EE40
:10246600F0900629C006C005120FAEE582D005D051
:1024760006D007602CC007C006C0057429C0E074EA
:1024860006C0E0E4C0E0749AC0E0743DC0E0748029
:10249600C0E0122E9FE58124FAF581D005D006D042
:1024A60007C007C006C00512112BAC82D005D006A6
:1024B600D0079008D6ECF0EC60030228C090062BFB
:1024C600E0FC7B0090062CE0FAE42CFCEA3BFB9057
:1024D60008D5E0FA0A900B1EECF0EBA3F0900B2067
:1024E600E540F0900B21EAF0900B2274AAF0900BD5
:1024F600237429F07406A3F0758206122B78900ACD
:10250600D9E4F0A3F0FBFC90062BE0F54075410002
:1025160090062CE0FAE42540F540EA3541F5418B7A
:10252600018C02C003C004A840AC41C3E998EA9CF0
:10253600D004D0035036EB2429F582EC3406F5831B
:10254600E0F97A00C004C003C001C002746EC0E0A6
:10255600743AC0E07480C0E0122E9FE58124FBF53A
:1025660081D003D0040BBB009E0C809B7476C0E028
:10257600743AC0E07480C0E0122E9F158115811553
:102586008190062EE0FCFA7B00C004C002C00374F2
:10259600ADC0E0743DC0E07480C0E0122E9FE581BE
:1025A60024FBF58190062DE0FB7A00C003C002747F
:1025B600C6C0E0743DC0E07480C0E0122E9FE58185
:1025C60024FBF581D0048C82120F5C90062BE0FC74
:1025D6007B0090062CE0FAE4F92CFCEA3BFB8C47E6
:1025E6008B487A00C3E99547EA9548501FE924D9F4
:1025F600F8EA3408FCE92429F582EA3406F583E092
:1026060088828C83F009B900DB0A80D8900629E01D
:102616009008D7F0E4A3F09008D5E0F54985494441
:102626009008D7E0F540A3E0F541C3E5409547E5BE
:1026360041954840030228BCE54024D9F540E541D0
:102646003408F541900ADBE540F0E541A3F085400A
:1026560082854183A3E0F8B80402801AB805028097
:102666004FB821030227D6B8240302281DB8250334
:1026760002284502286D88017A00C001C00274DB79
:10268600C0E0743DC0E07480C0E0122E9FE5812456
:10269600FBF581A940AA41900AD9E9F0EAA3F09096
:1026A60008CFE9F0EAA3F08544821220720228914D
:1026B60088017A00C001C00274F7C0E0743DC0E032
:1026C6007480C0E0122E9FE58124FBF5818540824F
:1026D6008541831210AB900AD9E0F9A3E0FA89820A
:1026E6008A83A3A3A3A3A3E0FABA03028003022862
:1026F6009174022540F545E43541F54685458285C8
:102706004683E020E7030228917900E975F008A4E2
:10271600245BFA740835F0FC8A828C83E060060933
:10272600B9080040E689037C00C001C003C00474F8
:1027360012C0E0743EC0E07480C0E0122E9FE581B6
:1027460024FBF581D001E975F008A4245BF54A74F1
:102756000835F0F54B7403254AF54CE4354BF54D39
:10276600854582854683E0854C82854D83F0854A82
:1027760082854B837401F004254AF545E4354BF513
:1027860046900AD9E0FAA3E0FC8A828C83A3A3E0F0
:10279600854582854683F0854A82854B83A3E54934
:1027A600F0854C82854D83E0FC7B00C001C004C0EF
:1027B600037434C0E0743EC0E07480C0E0122E9F03
:1027C600E58124FBF581D0018982121EE60228915B
:1027D60088037C00C003C004745BC0E0743EC0E0A4
:1027E6007480C0E0122E9FE58124FBF581900AD902
:1027F600E0FBA3E0FC900AD9E0F5F0A3E045F07019
:10280600030228919008D1E540F0E541A3F08B82C0
:102816008C83122128807488037C00C003C0047452
:1028260071C0E0743EC0E07480C0E0122E9FE58166
:1028360024FBF5818540828541831210AB804C884C
:10284600037C00C003C0047499C0E0743EC0E07409
:1028560080C0E0122E9FE58124FBF58185408285AC
:1028660041831210AB80247C00C000C00474C3C036
:10287600E0743EC0E07480C0E0122E9FE58124FB28
:10288600F5818540828541831210AB900ADBE0FB1F
:10289600A3E0FC8B828C83E0FB9008D7E0FAA3E0F0
:1028A600FC8B017B00E92AFAEB3CFC9008D7EAF0A6
:1028B600ECA3F0022626758200229008D6E0FCFAE8
:1028C6007B00C007C006C005C004C002C00374E593
:1028D600C0E0743EC0E07480C0E0122E9FE5812403
:1028E600FBF581D004D0058D030B900B1EE4F0A3FD
:1028F600F0900B20EBF0900B21ECF0900B2274EE95
:10290600F0900B23E4F0A3F0758203C005122B7838
:10291600853E82853F837402F07582011206FFD0E0
:1029260005D006D007054274F62542400302222C44
:102936009008D6E0F58222900ADDE4F010D8030272
:102946002ACAE5DB30E363900829E06008E5E43055
:10295600E003022A0775820012068890082974018E
:10296600F0E4C0E0C0E074F3C0E0743EC0E0748000
:10297600C0E0122E9FE58124FBF581900B1EE4F04A
:10298600A3F0900B2004F0900B21F0900B22F09016
:102996000B23E4F0A3F0758201122B7875820012E6
:1029A6002207E582900ADDF08057900829E0FFBFF4
:1029B6000100404D7582001211F7758200120688DB
:1029C600E4C0E0C0E07414C0E0743FC0E07480C0AE
:1029D600E0122E9FE58124FBF581900B1EE4F0A307
:1029E600F0900B2004F0900B21F0900B22F0900B4E
:1029F60023E4F0A3F0758202122B78900ADD741698
:102A0600F0E5DB30E76490082CE06008E5E530E0AF
:102A160003022ACA75820112068890082C7401F0F6
:102A2600C0E0E4C0E074F3C0E0743EC0E07480C06F
:102A3600E0122E9FE58124FBF581900B1EE4F0A3A6
:102A4600F0900B207402F0900B21F0900B22F09086
:102A56000B23E4F0A3F0758201122B787582011224
:102A66002207E582900ADDF0805A90082CE0FFBF2D
:102A7600010040507582011211F775820112068815
:102A86007401C0E0E4C0E07414C0E0743FC0E074B8
:102A960080C0E0122E9FE58124FBF581900B1EE499
:102AA600F0A3F0900B207402F0900B21F0900B2213
:102AB600F0900B23E4F0A3F0758202122B78900AB3
:0B2AC600DD7416F0900ADDE0F58222BE
:103903008006000100001200800600020000120081
:103913008106000400000900000502000000000009
:1039230080060203090402040009000000000000ED
:10393300210A000000000000810600220000FF00B1
:10394300686F73744374726C5472616E73666572DC
:103953000A0052656D61696E696E672062797465EC
:103963007320746F20726561642025640A005265B8
:103973006365697665642025692062797465730AD5
:103983000052656D61696E696E6720627974657353
:1039930020746F207772697465202569005345543C
:1039A3005F504F525420202530325820202530328A
:1039B30058200053656E64696E672025692062791B
:1039C3007465730A0066696C6C5478427566666543
:1039D300722025692062797465730A0066696C6CCC
:1039E300547842756666657220646F6E650A006777
:1039F300657444657669636544657363726970745D
:103A03006F720A0044657669636520646573637247
:103A13006970746F72207265717565737420736554
:103A23006E74207375636365737366756C6C790A62
:103A3300005265636569766564207061636B6574C4
:103A430020697320736D616C6C6572207468616E9C
:103A53002065787065637465640A00536574416416
:103A630064726573733A2025690A00307825303211
:103A73005820000A0020202020005573616765202C
:103A83007061676520004C454473004B6579626F34
:103A93006172642F4B657970616400427574746F51
:103AA3006E0067656E65726963206465736B746F1E
:103AB3007020636F6E74726F6C730076656E646FE3
:103AC3007220646566696E65642030782530346CD5
:103AD3007800756E6B6E6F776E2030782530326CA0
:103AE300780055736167652000556E6B6E6F776E56
:103AF30000506F696E746572004D6F757365005287
:103B030065736572766564004A6F79737469636B74
:103B13000047616D65706164004B6579626F617226
:103B230064004B6579706164004D756C74692D4157
:103B330078697320636F6E74726F6C6C6572005476
:103B430061626C65742073797374656D20636F6E45
:103B530074726F6C7300580059005A00576865659A
:103B63006C004C6F676963616C206D696E20256C16
:103B7300750A004C6F676963616C206D617820255D
:103B83006C750A00506879736963616C206D696EA6
:103B930020256C750A00506879736963616C206D28
:103BA300617820256C750A00436F6C6C65637469DA
:103BB3006F6E20737461727420256C750A00436FF5
:103BC3006C6C656374696F6E20656E6420256C751B
:103BD3000A00556E69742030782530326C780A00FB
:103BE300496E7075742030782530326C780A004F36
:103BF30075747075742030782530326C780A0046FD
:103C03006561747572652030782530326C780A00EE
:103C13005265706F72742073697A6520256C750A1A
:103C2300005265706F727420494420256C750A0038
:103C33005265706F727420636F756E7420256C7596
:103C43000A00556E6B6E6F776E204849442072658B
:103C5300706F7274206964656E7469666965723A1F
:103C630020307825303278202825692062797465E0
:103C7300732920646174613A2030782530326C787E
:103C83000A0052657175657374696E672072657099
:103C93006F72742066726F6D20696E7465726661EF
:103CA30063652025690A00496E7465726661636500
:103CB3002025640A002020436C6173732025640A65
:103CC30000202053756220436C6173732025640ABE
:103CD300002020496E746572666163652050726FBF
:103CE300746F636F6C2025640A0048494420617433
:103CF30020496E746572666163652025640A00203D
:103D0300205553422025642E256425640A00202073
:103D1300436F756E74727920636F64652030782504
:103D23003032580A002020547970655820307825A5
:103D33003032580A004661696C656420746F2065EF
:103D43006E61626C6520726F6F742068756220709B
:103D53006F72742025690A00726F6F742068756230
:103D630020706F727420256920656E61626C6564D2
:103D73000A0044657669636520636C61737320256B
:103D8300690A004D6178207061636B657420736903
:103D93007A652025690A0044657669636520537452
:103DA30072696E673A2025730A00436F6E6669670E
:103DB30075726174696F6E2076616C75653A202542
:103DC300640A00496E7465726661636520636F758A
:103DD3006E743A2025640A00496E746572666163E5
:103DE300652064657363726970746F7220666F75A2
:103DF3006E640A00456E64706F696E742064657347
:103E030063726970746F7220666F756E640A004323
:103E13006F6E6E656374656420646576696365209F
:103E2300617420706F736974696F6E3A2025690A33
:103E330000476F7420656E64706F696E7420666FDF
:103E43007220746865204849446465766963652017
:103E53003078253032780A0048494420646573631A
:103E6300726970746F7220666F756E640A00436CBA
:103E73006173732073706563696669632068656144
:103E83006465722064657363726970746F7220660F
:103E93006F756E640A00436C61737320737065639E
:103EA3006966696320656E64706F696E742064650A
:103EB3007363726970746F7220666F756E640A0043
:103EC300556E6578706563746564206465736372A9
:103ED3006970746F7220747970653A202530325896
:103EE3000A004572726F72203D20253032580A0055
:103EF30044657669636520617420726F6F7420680E
:103F0300756220256920636F6E6E65637465640A4C
:103F13000044657669636520617420726F6F742055
:103F230068756220256920646973636F6E6E6563CB
:053F33007465640A0042
:013F4D000073
:102AD10010980122900B7AE024DEF582E4340AF5A5
:102AE10083E599F0900B7AE0FF24DEF582E4340A65
:102AF100F583E0FEBE0A028005BF400040707E0003
:102B0100900B7AE0FDC3EE9D502EEE24DEF582E4BB
:102B1100340AF583E0FD7C00C006C005C0047438AA
:102B2100C0E0743FC0E07480C0E0122E9FE58124B4
:102B3100FBF581D0060E80C87440C0E0743FC0E050
:102B41007480C0E0122E9F158115811581900ADED7
:102B5100E0FEBE6B11900ADFE0FEBE6209850882CD
:102B610085098312004C900B7AE4F0022AD1900B74
:102B71007AEF04F0022AD1E582900B25F09000FE55
:102B81001205C9900B1EE0FEA3E0FF8E048F058C99
:102B9100828D83C007C0061205C9D006D0078F05F4
:102BA1007C008D828C83C007C0061205C9900B255D
:102BB100E0FC7D008C828D831205C9900B20E0FC26
:102BC1007D008C828D831205C9900B21E0FC7D0074
:102BD1008C828D831205C9900B22E0FC7D008C82D2
:102BE1008D831205C99000001205C99000001205DD
:102BF100C99000001205C99000001205C9D006D085
:102C010007900B23E0FCA3E0FD7A007B00C3EA9E62
:102C1100EB9F5032EA2CF582EB3DF583E0F8790029
:102C210088828983C007C006C005C004C003C002F2
:102C31001205C9D002D003D004D005D006D0070AAE
:102C4100BA00CA0B80C790000A0205C9E582900B41
:102C510031F09000FE1205C9900B26E0FEA3E0FFC3
:102C61008E048F058C828D83C007C0061205C9D0E2
:102C710006D0078F057C008D828C83C007C00612A9
:102C810005C9900B31E0FC7D008C828D831205C952
:102C9100900B28E0FC7D008C828D831205C9900B7E
:102CA10029E0FC7D008C828D831205C9900B2AE0FE
:102CB100FC7D008C828D831205C9900B2DE0FC7D7B
:102CC100008C828D831205C9900B2EE0FC7D008C57
:102CD100828D831205C9900B2FE0FC7D008C828DC3
:102CE100831205C9900B30E0FC7D008C828D83122C
:102CF10005C9D006D007900B2BE0FCA3E0FD7A00BC
:102D01007B00C3EA9EEB9F5032EA2CF582EB3DF546
:102D110083E0F8790088828983C007C006C005C0B6
:102D210004C003C0021205C9D002D003D004D005EB
:102D3100D006D0070ABA00CA0B80C790000A020564
:012D4100C9C8
:0A3F380030782530325820000A00CE
:013F4E000072
:102D4200AF82AE83ADF0FC900B36EFF0EEA3F0ED68
:102D5200A3F0ECA3F0900B3AE4F0A3F0A3F0A3F0FD
:102D6200900B32E0FCA3E0FDA3E0FEA3E0FF7B209A
:102D7200C003900B36E0F8A3E0F9A3E0FAA3E0FB6E
:102D8200900B3E235401F0E828F8E933F9EA33FACC
:102D9200EB33FB900B36E8F0E9A3F0EAA3F0EBA3E8
:102DA200F0900B3AE0F8A3E0F9A3E0FAA3E0FBE825
:102DB20028F8E933F9EA33FAEB33FB900B3AE8F0FF
:102DC200E9A3F0EAA3F0EBA3F0D003900B3EE0609E
:102DD20008900B3AE043E001F0900B3AE0F515A3BE
:102DE200E0F516A3E0F517A3E0F518C3E5159CE599
:102DF200169DE5179EE5189F401F900B3AE515C3F7
:102E02009CF0E5169DA3F0E5179EA3F0E5189FA39D
:102E1200F0900B36E043E001F01BEB6003022D72F1
:102E2200900B36E0FCA3E0FDA3E0FEA3E08C828DD4
:042E3200838EF02279
:06007D00E478FFF6D8FD57
:10005B007902E94400601B7A01903F4D787975A0D5
:10006B000BE493F2A308B8000205A0D9F4DAF275F9
:02007B00A0FFE4
:102E360020F71130F6138883A88220F509F6A883B7
:0B2E46007583002280FEF280F5F02270
:100083007800E84400600A790075A006E4F309D813
:10009300FC7879E84405600C7906900600E4F0A347
:0400A300D8FCD9FAB2
:02004C00E4735B
:102E5100C0148581147E008E831205C9D01422AF5F
:102E6100F0AE83E582900B41F0EEA3F0EFA3F0907A
:102E71000B41E0FDA3E0FEA3E0FF900B40E0FC90DE
:102E81000B55E4F0A3F0A3F0900B58EDF0EEA3F096
:102E9100EFA3F0900B5BECF0902E51022FA3C01426
:102EA100E581F51424FBFF900B55E4F0A3F0A3F0AA
:102EB100E51424FBF8900B58E6F008E6A3F008E6C9
:102EC100A3F0900B5BEFF0902E51122FA3D01422A0
:102ED100E582900B51F0E0FF900B47E0C0E0A3E0EA
:102EE100C0E0A3E0C0E0122EEC800D900B45E0C0E5
:102EF100E0A3E0C0E08F8222158115811581900B3E
:102F01004FE02401F0A3E03400F022E582900B525F
:102F1100F0E02430FF24C6500D74072FFF900B44BE
:102F2100E060034307208F82022ED1E582900B538C
:102F3100F0E0FFC4540FF582C007122F0CD00753E5
:102F4100070F8F82022F0CE582900B54F0900B4AF1
:102F5100E0FCA3E0FDA3E0FEA3E0FF900B4EE0FB4D
:102F6100900B54E0FA7920EB2BF515EF2354014532
:102F710015FBEC2CFCED33FDEE33FEEF33FFC3EB21
:102F81009A4007EBC39AFB43040119E970D9900BEE
:102F91004AECF0EDA3F0EEA3F0EFA3F0900B4EEBB3
:102FA100F022AF83E582900B5CF0EFA3F0900B5C15
:102FB100E0FEA3E0FF900B45EEF0EFA3F0900B5580
:102FC100E0FDA3E0FEA3E0FF900B47EDF0EEA3F0E0
:102FD100EFA3F0900B4FE4F0A3F0900B58E0FDA3AA
:102FE100E0FEA3E0FF8D828E838FF01238D3FC9038
:102FF1000B5874012DF0E43EA3F0EFA3F0EC700345
:1030010002388FBC25028003023887900B5EE4F002
:10301100900B5FF0900B60F0900B61F0900B62F001
:10302100900B63F0900B64F0900B65F0900B67F0E0
:10303100900B68F0A3F0900B6A14F0A3F0900B587A
:10304100E0FDA3E0FEA3E0FF8D828E838FF01238B6
:10305100D3FBA3AD82AE83900B58EDF0EEA3F0EF5E
:10306100A3F0900B6EEBF0BB25088B82122ED102E0
:103071002FDBBB3000500302313CEB24C65003026E
:10308100313C900B6AE0F50AA3E0F50B74FFB50A39
:1030910063B50B60C005C006C007900B68E0FAA3DA
:1030A100E0FF900B77EAF0EFA3F090000AC005C0B3
:1030B100031238B3AE82AF83D003D0058B057A00FB
:1030C100ED2EFEEA3FFFEE24D0FEEF34FFFF900B22
:1030D10068EEF0EFA3F0D007D006D005900B68E0C2
:1030E100F5F0A3E045F06003023049900B5F7401F5
:1030F100F0023049C005C006C007900B77E50AF021
:10310100E50BA3F090000AC006C005C0031238B356
:10311100AA82AF83D003D005D0067E00EB2AFAEE57
:103121003FFFEA24D0FAEF34FFFF900B6AEAF0EF99
:10313100A3F0D007D006D005023049900B6EE0FB1A
:10314100BB2E2FC005C006C007900B6AE0FAA3E0B2
:10315100FFBAFF05BFFF028009D007D006D00502E4
:103161003049D007D006D005900B6AE4F0A3F002F5
:103171003049BB61004014EB2485400F900B6E7405
:10318100DF5BF0900B447401F08005900B44E4F098
:10319100900B6EE0FBBB20028075BB2B028067BBEE
:1031A1002D028059BB4202806FBB4302807CBB442D
:1031B10003023433BB4603023459BB48030230498E
:1031C100BB4903023433BB4A03023049BB4C028082
:1031D10050BB4F03023441BB50030233A1BB530226
:1031E1008077BB5403023049BB5503023449BB58B5
:1031F10003023451BB5A03023049023461900B5E21
:103201007401F0023049900B607401F00230499072
:103211000B617401F0023049900B637401F00230CC
:1032210049900B647401F0023049900B63E0600E29
:10323100900B5BE014F9F0900B6EE7F0800F900BB0
:103241005BE024FEFFF08F01900B6EE7F0900B6EB8
:10325100E0F582122ED1023470900B5BE024FDFF69
:10326100F08F0187050987060987071919900B4A0D
:10327100EDF0EEA3F0EFA3F08D828E838FF0123884
:103281009B85820A85830B900B6AE0FAA3E0FDBA65
:10329100FF0DBDFF0A900B6AE50AF0E50BA3F09064
:1032A1000B5EE0704B900B68E0FAA3E0FDC3E50A0A
:1032B1009AE50B9D503A900B68EAC3950AF0ED959B
:1032C1000BA3F0900B68E0FAA3E0FD8A068D071AC4
:1032D100BAFF011DEE4F6010758220C005C00212B9
:1032E1002ED1D002D00580E3900B68EAF0EDA3F077
:1032F100900B6AE0F50DA3E0F50E900B4AE0FAA3FE
:10330100E0FDA3E0FF8A828D838FF01238D3F50CA4
:10331100603CC3E4950D7480850EF063F08095F0F8
:10332100502C150D74FFB50D02150E850C82122E51
:10333100D1900B4AE0FAA3E0FDA3E0FF0ABA000135
:103341000D900B4AEAF0EDA3F0EFA3F080AC900BE7
:103351005EE07003023470900B68E0FEA3E0FFC3EF
:10336100E50A9EE50B9F4003023470900B68EEC3A3
:10337100950AF0EF950BA3F0900B68E0FEA3E0FF38
:103381008E028F051EBEFF011FEA4D7003023468D5
:10339100758220C007C006122ED1D006D00780E06A
:1033A100900B5BE024FDFDF08D01870F098710096B
:1033B10087111919900B4AE50FF0E510A3F0E511FB
:1033C100A3F0900B4CE0FDBD80004008900B6E74A3
:1033D10043F08020BD60004008900B6E7450F08077
:1033E10013BD40004008900B6E7449F08006900BAD
:1033F1006E7458F0900B6EE0FDF582C005122ED16F
:1034010075823A122ED1758230122ED175827812C0
:103411002ED1D005BD4902800EBD50028009900B0E
:103421004BE0F582122F2C900B4AE0F582122F2CE3
:10343100803D900B627401F0900B67740AF0802F4D
:10344100900B677408F08027900B67740AF0801F57
:10345100900B677410F08017900B657401F0800F6A
:103461008B82122ED18008900B68EEF0EFA3F090C2
:103471000B65E06071900B5BE024FCFFF08F01872E
:1034810003098705098706098707191919900B4A46
:10349100EBF0EDA3F0EEA3F0EFA3F0900B4A744232
:1034A100F0743FA3F07480A3F0900B4AE0F50FA3F2
:1034B100E0F510A3E0F5117401250FFAE43510FBD6
:1034C100AF11900B4AEAF0EBA3F0EFA3F0850F8266
:1034D1008510838511F01238D3FF7003022FDB8F23
:1034E10082122ED180C3900B67E0F50DE0700302CC
:1034F1002FDB900B63E06047900B5BE014F9F087E2
:10350100067D007B007A00900B4AEEF0EDA3F0EB14
:10351100A3F0EAA3F0900B62E060030235B6900BD2
:103521004AE0FAA3E0A3E0A3E07B007D007E0090E7
:103531000B4AEAF0EBA3F0EDA3F0EEA3F080769056
:103541000B64E06028900B5BE024FCFEF08E0187A9
:1035510002098703098705098706191919900B4A7A
:10356100EAF0EBA3F0EDA3F0EEA3F08048900B5B43
:10357100E024FEFEF08E01870509870619EE3395DA
:10358100E0FBFA900B4AEDF0EEA3F0EBA3F0EAA317
:10359100F0900B62E0701E900B4AE0FAA3E0FBA3EF
:1035A100E0A3E07D007E00900B4AEAF0EBA3F0ED92
:1035B100A3F0EEA3F0900B62E0603D900B4AE0A314
:1035C100E0A3E0A3E030E72B900B4AE0FAA3E0FB95
:1035D100A3E0FDA3E0FEC3E49AFAE49BFBE49DFDB6
:1035E100E49EFE900B4AEAF0EBA3F0EDA3F0EEA30C
:1035F100F08005900B62E4F0900B667401F0751297
:103601007475130BE4F50AF50B900B4EE4F0850D80
:1036110082122F48900B66E07033900B4EE0C45439
:10362100F0F50F900B4EE0C4540F450FF50F8512C6
:1036310082851383E0FFE50F42078512828513839C
:10364100EFF0151274FFB512021513800B900B4E9B
:10365100E0851282851383F0050AE4B50A02050BA1
:10366100900B66E0B40100E433F0900B4AE0FAA35A
:10367100E0FBA3E0FEA3E0FFEA4B4E4F708B900B03
:1036810075E512F0E513A3F0900B6CE50AF0E50B7C
:10369100A3F0900B68E0F5F0A3E045F07009900B02
:1036A100687401F0E4A3F0900B5FE0FFE0703E90DE
:1036B1000B5EE07038900B68E0FDA3E0FE900B6CB0
:1036C100E0FB0B7A00C3EB9DEA9E5019758220C086
:1036D10007C006C005122ED1D005D006D0071DBDEA
:1036E100FF011E80D8900B68EDF0EEA3F0900B6205
:1036F100E0602075822DC007122ED1D007900B6893
:10370100E024FFFDA3E034FFFE900B68EDF0EEA393
:10371100F08056900B6CE0F5F0A3E045F0604A9024
:103721000B60E0602075822BC007122ED1D007906C
:103731000B68E024FFFDA3E034FFFE900B68EDF081
:10374100EEA3F08024900B61E0601E758220C0071B
:10375100122ED1D007900B68E024FFFDA3E034FFC7
:10376100FE900B68EDF0EEA3F0900B5EE0704490DC
:103771000B6CE0F512A3E0F513900B68E0FAA3E0FF
:10378100FBC0078A068B071ABAFF011BC3E5129E0D
:10379100E5139FD007504FEF60047E3080027E20FA
:1037A1008E82C007C003C002122ED1D002D003D036
:1037B1000780CE900B68E0FEA3E0FF900B6CE0F574
:1037C10012A3E0F513C3E5129EE5139F500F900B72
:1037D10068EEC39512F0EF9513A3F08011900B687A
:1037E100E4F0A3F08008900B68EAF0EBA3F0900BF3
:1037F10075E0FEA3E0FF900B6CE0F512A3E0F5137A
:10380100AA12AD13151274FFB512021513EA4D6019
:1038110044900B66E0B40100E433F0900B66E07075
:10382100130EBE00010F8E828F83E0C4540F900BE4
:103831004EF0800E8E828F83E0FD53050F900B4E6C
:10384100EDF0900B4EE0F582C007C006122F0CD0B0
:1038510006D00780AB900B5EE07003022FDB900B6C
:1038610068E0FEA3E0FF8E038F051EBEFF011FEB84
:103871004D7003022FDB758220C007C006122ED1C6
:10388100D006D00780E08C82122ED1022FDB900B64
:0A3891004FE0FEA3E08E82F58322D3
:0B3F42003C4E4F20464C4F41543E00C7
:10389B00AA82AB831238D36003A380F8C3E5829A64
:1038AB00F582E5839BF58322AA83AB828BF0900B89
:1038BB0077E0A4F8A9F08AF0E0A429F98BF0A3E053
:0838CB00A429F5838882222262
:0D004E0075814D1238EFE582600302004914
:1038D30020F71430F6148883A88220F507E6A8831E
:1038E30075830022E280F7E49322E02275820022AE
:00000001FF
