:0300000002004EAD
:100008000000E2FBEAF2802C0000E0FBEAF080242A
:10001800E6B50202EBF62200E2B50202EBF222009C
:10002800E0B50202EBF02230F6E0A88220F5D3EA30
:10003800C6F582228B822230F6E6A88220F5D98086
:01004800CFE8
:0300AD0002004905
:030049000200B002
:1000B0001200DB9006007401F0E4A3F090C200751A
:1000C000F0011200F312025FE5C120E60985088203
:0B00D00085098312004C120A3980EDF4
:0600A7007508007509F464
:1000DB0075A15575A1AA53B3E043B30675B2D87594
:1000EB00A1FF9000070201F7AF82AE83ADF0FC9049
:1000FB000602EFF0EEA3F0EDA3F0ECA3F0900600F8
:10010B00E0F5F0A3E045F0600C43C60143C408439F
:10011B00C50C43CE10C29FD29EC29DD29C438780FA
:10012B00900602E0FCA3E0FDA3E0FEA3E0FF900835
:10013B0033ECF0EDA3F0EEA3F0EFA3F0908D807510
:10014B00F05BE4120B35AC82AD830CBC00010DED02
:10015B00C313CC13CC740F55894420F58943C9A024
:10016B00C3E49CF58DD28ED29922AF83E5829006A3
:10017B0006F0EFA3F010990280FB900606E0FEA3B9
:10018B00E0FF8E998E828F832210980280FBAE99AE
:10019B007F008E828F8322AF83E582900608F0EF7B
:1001AB00A3F0900608E0FEA3E0FFEE4F603505A13B
:1001BB0005A105A105A105A105A105A105A105A104
:1001CB0005A105A105A105A105A105A105A105A1F4
:1001DB0005A105A11EBEFF011F900608EEF0EFA3BF
:1001EB00F080C7900608EEF0EFA3F022AF83E58214
:1001FB0090060AF0EFA3F090060AE0FEA3E0FFEEF4
:10020B004F601D9003E8C007C0061201A2D006D0B4
:10021B00071EBEFF011F90060AEEF0EFA3F080DF72
:10022B0090060AEEF0EFA3F022E582900813F0E0BF
:10023B00FF75F003A4240DFD740835F0FE8D828E3E
:10024B0083E4F08D828E83A3F0EF600475E50022CA
:10025B0075E40022C2EA75E28075E30090244774CE
:10026B0048F090244CE4F0A3F090244E04F0E4A367
:10027B00F0F5D4F5D675E28975D24075D8FF758245
:10028B000012023475820112023475E10322E582F9
:10029B00900814F0E5E35480FFE0547F4FF5E32220
:1002AB00E582900815F0E0600753E2BF53D27F223E
:1002BB0043E24022E582900816F090060C7408F099
:1002CB007582001202997582011202AB900816E03A
:1002DB00FFE0701374FB55E44402F5E490000F1239
:1002EB0001F753E4FD8014BF011174FB55E5440283
:1002FB00F5E590000F1201F753E5FD9000FA12019E
:10030B00A2C2D822E582900817F0E075F003A4246E
:10031B000DFE740835F0FF8E828F83E0FDBD01006A
:10032B0050078E828F837401F0900817E0FF70499D
:10033B00E5DB20E3030203CDE5E420E035E5DB302C
:10034B00E21AEF75F003A4240DFD740835F0FE8D51
:10035B00828E83A3A3E4F043E4048016EF75F003CD
:10036B00A4240DFD740835F0FE8D828E83A3A37437
:10037B0001F043E40175820022BF0146E5DB30E763
:10038B0041E5E520E035E5DB30E61AEF75F003A437
:10039B00240DFD740835F0FE8D828E83A3A3E4F04B
:1003AB0043E5048016EF75F003A4240DFE740835A5
:1003BB00F0FF8E828F83A3A37401F043E501758256
:1003CB00002275821622E582900819F0E075F00381
:1003DB00A4240DFE740835F0FF8E828F83A3E0F505
:1003EB0082C007C006120299D006D0078E828F8377
:1003FB00A3A3E0F5820202ABE58290081DF0900802
:10040B001AE0FF8FD48FD690081EE4F0A3F090086B
:10041B001DE0FEC4540FFDBD0103ED8001E4F50D9D
:10042B00E4BD090104FB90081BE0F9A3E0FA8ED5AB
:10043B00C2D9750AC8750B00E50A450B602C20D98B
:10044B0029900001C007C006C005C003C002C0014F
:10045B001201A2D001D002D003D005D006D00715CF
:10046B000A74FFB50A02150B80CE75D50020D9048E
:10047B007582FE2220D90302057830DE04758200D6
:10048B0022E5D9540FF50C740EB50C0474018001E0
:10049B00E4F50A60077420450CF58222740AB50C4A
:1004AB000474018001E4F8603FE94A700A74204546
:1004BB000CF50D850D8222C00389038A04C3EB94CE
:1004CB00FFEC94FFD003500519B9FF011AC003903C
:1004DB00081EE024FFFBA3E034FFFC90081EEBF0AA
:1004EB00ECA3F0D00302057BE50D7006EB702CBD81
:1004FB000D7730DE04758200227402B50C04758210
:10050B000022E50A7003E860077420450CF582228F
:10051B00E50C605C7420450CF5822230DE0475829C
:10052B000022EF600D740BB50C0474018001E4FC28
:10053B00800B7403B50C0474018001E4FCEC6004C3
:10054B0075820022E50A7003E860077420450CF5FC
:10055B0082227403B50C07740BB50C028012E50CE8
:10056B00600E7420450CF582227582FE2275D8FF31
:10057B0090000FC007C006C005C003C002C0011227
:10058B0001A2D001D002D003D005D006D00790082D
:10059B001EE02401F0A3E03400F090081EE0F8A365
:1005AB00E0FCC3E894C8EC94005003020439758254
:1005BB002022AF83E582900825F0EFA3F090082569
:1005CB00E0FEA3E0FF900829EEF0EFA3F0900820E7
:1005DB00E0FBA3E0FCA3E0FD9000C8C007C006C091
:1005EB0005C004C0031201A2D003D004D005D0066D
:1005FB00D007EB4C600E8B828C838DF0E4120C29B0
:10060B00A3120C2975D70890081AE4F090081B74F4
:10061B0010F07427A3F07582D0C007C006C005C0C8
:10062B0004C003120403AA82D003D004D005D00661
:10063B00D007EA60038A8222C006C00775D6D07540
:10064B00D4D075D701900107E0FA7900900106E04C
:10065B007F004201EF4202900827E9F0EAA3F0D0B5
:10066B0007D006E94A700302083FEE4F70030208F9
:10067B003F900100E020E703020775900827E0FE9A
:10068B00A3E0FF4E700302076F90012CC007C0065A
:10069B00C005C004C0031201A290081AE5D4F09063
:1006AB00081B7410F07427A3F0758290120403AA30
:1006BB0082D003D004D005D006D007EA60038A822B
:1006CB0022A9D17A00C3E99EEA9F5004A9D18004E4
:1006DB008E018F028907900827E0FAA3E0FE8F00B6
:1006EB007F00EAC398FAEE9FFE900827EAF0EEA38C
:1006FB00F0EB4C60248B828C838DF01216C6FAA320
:10070B001216C6FEE82AF8EF3EFF8B828C838DF023
:10071B00E8120C29A3EF120C29900829E0FEA3E0A4
:10072B00FF7A00C3EA995018EA2EF50EE43FF50F55
:10073B008A82758300E0850E82850F83F00A80E341
:10074B00900829E0FEA3E0FF900829E92EF0E43F92
:10075B00A3F0E5D1600E90060CE0FFC3E5D19F40FE
:10076B000302068675D70002083F900827E0FEA318
:10077B00E0FF4E700302083F9000C8C007C006C0E0
:10078B0005C004C0031201A2D003D004D005D006CB
:10079B00D00790060CE0F97A00C3EE99EF9A92001D
:1007AB0050048E018F0289D7900829E0FEA3E0FF49
:1007BB00900829E5D72EF0E43FA3F090081AE5D670
:1007CB00F090081B7410F07427A3F0758210C0050D
:1007DB00C004C003120403AF82D003D004D005EFD2
:1007EB0060038F8222AFD7900827E0FAA3E0FE8F39
:1007FB00017F00EAC399FAEE9FFE900827EAF0EE1C
:10080B00A3F0EB4C70030207758B828C838DF01277
:10081B0016C6FEA31216C6FFA9D77A00E92EFEEA6A
:10082B003FFF8B828C838DF0EE120C29A3EF120C01
:10083B00290207759000C81201A2E5D760047F90CA
:10084B0080027F1090081A74C0F090081B7410F08F
:10085B007427A3F08F82120403E582FF60038F825B
:10086B0022E5D77003F58222E5D17003F58222755C
:10087B00821722AF83E58290082CF0EFA3F090084B
:10088B002CE0FEA3E0FF90082BE0FD7C00C3EC9D69
:10089B0050168C027B01EC2EF582E43FF583E4933A
:1008AB008A828B83F00C80E52290060C7408F09002
:1008BB00082BF09016E612087E900820742EF07428
:1008CB0008A3F0E4A3F0900823F07402A3F09006C1
:1008DB000D1205BDE582FF60038F8222900614E0A6
:1008EB0090060CF09016ECE493FF90082EE0FDA31D
:1008FB00E0FE7C00C3ED9FEE9C50047582172275C1
:10090B00820022E582900830F0900831E4F09008E4
:10091B0030E0FFFE7D00900064C007C006C00512EA
:10092B0001F79000641201F7D005D0068E82C00645
:10093B00C0051202BFD005D006D0077C0090000185
:10094B00C007C006C005C0041201F7D004D005D003
:10095B00068E82C006C005C00412030FE582D004C8
:10096B00D005D006D00760060CBC640040CFBC6439
:10097B00148F82C007C006C005120234D005D00602
:10098B00D007020A29900830E0FC900818E4F08C9C
:10099B0082C007C006C005C0041203D11208B4AB55
:1009AB0082D004D005D006D007900831EBF0EB7065
:1009BB0049900616E0FA7B00900615E07900420399
:1009CB00E94202900618E0F8790088118910900628
:1009DB0017E0F87900E5114201C000C001C003C067
:1009EB000274EEC0E07416C0E07480C0E0120C928A
:1009FB00E58124F9F58175820022EC75F003A424BE
:100A0B000DF582740835F0F5837402F0758201C020
:100A1B0007C006C0051202ABD005D006D0070DBD2E
:100A2B000A005003020921900831E0F58222900858
:100A3B0032E4F010D803020B2EE5DB30E33F9008D5
:100A4B000DE06005E5E420E064758200120234904D
:100A5B00080D7401F0E4C0E0C0E07408C0E0741746
:100A6B00C0E07480C0E0120C92E58124FBF5817527
:100A7B00820012090EE582900832F0803090080D4A
:100A8B00E0FFBF01004026758200120234E4C0E093
:100A9B00C0E07429C0E07417C0E07480C0E0120C91
:100AAB0092E58124FBF5819008327416F0E5DB307A
:100ABB00E73F900810E06005E5E520E066758201F0
:100ACB001202349008107401F0C0E0E4C0E0740826
:100ADB00C0E07417C0E07480C0E0120C92E5812472
:100AEB00FBF58175820112090EE582900832F080C8
:100AFB0032900810E0FFBF010040287582011202FE
:100B0B00347401C0E0E4C0E07429C0E07417C0E0A5
:100B1B007480C0E0120C92E58124FBF581900832C1
:0A0B2B007416F0900832E0F5822203
:1016E60080060001000012005649443A2030782551
:1016F6003034582C205049443A203078253034581C
:101706000A0044657669636520617420726F6F74A0
:101716002068756220256920636F6E6E6563746547
:10172600640A0044657669636520617420726F6F90
:10173600742068756220256920646973636F6E6E14
:0717460065637465640A008D
:100B3500AF82AE83ADF0FC900837EFF0EEA3F0ED99
:100B4500A3F0ECA3F090083BE4F0A3F0A3F0A3F02E
:100B5500900833E0FCA3E0FDA3E0FEA3E0FF7B20CB
:100B6500C003900837E0F8A3E0F9A3E0FAA3E0FB9F
:100B750090083F235401F0E828F8E933F9EA33FAFD
:100B8500EB33FB900837E8F0E9A3F0EAA3F0EBA319
:100B9500F090083BE0F8A3E0F9A3E0FAA3E0FBE856
:100BA50028F8E933F9EA33FAEB33FB90083BE8F030
:100BB500E9A3F0EAA3F0EBA3F0D00390083FE060CF
:100BC5000890083BE043E001F090083BE0F521A3E5
:100BD500E0F522A3E0F523A3E0F524C3E5219CE598
:100BE500229DE5239EE5249F401F90083BE521C3F8
:100BF5009CF0E5229DA3F0E5239EA3F0E5249FA3A9
:100C0500F0900837E043E001F01BEB6003020B6551
:100C1500900837E0FCA3E0FDA3E0FEA3E08C828D05
:040C2500838EF022A8
:06007D00E478FFF6D8FD57
:10005B007900E94400601B7A00901758787A75A0F4
:10006B0008E493F2A308B8000205A0D9F4DAF275FC
:02007B00A0FFE4
:100C290020F71130F6138883A88220F509F6A883E6
:0B0C39007583002280FEF280F5F0229F
:100083007800E84400600A790075A006E4F309D813
:10009300FC787AE84402600C7903900600E4F0A34C
:0400A300D8FCD9FAB2
:02004C00E4735B
:100C4400C01C85811C7E008E83120175D01C22AFCE
:100C5400F0AE83E582900842F0EEA3F0EFA3F090AB
:100C64000842E0FDA3E0FEA3E0FF900841E0FC9011
:100C74000856E4F0A3F0A3F0900859EDF0EEA3F0C9
:100C8400EFA3F090085CECF0900C44020D96C01CAD
:100C9400E581F51C24FBFF900856E4F0A3F0A3F0D3
:100CA400E51C24FBF8900859E6F008E6A3F008E6F2
:100CB400A3F090085CEFF0900C44120D96D01C2227
:100CC400E582900852F0E0FF900848E0C0E0A3E01D
:100CD400C0E0A3E0C0E0120CDF800D900846E0C045
:100CE400E0A3E0C0E08F8222158115811581900870
:100CF40050E02401F0A3E03400F022E58290085390
:100D0400F0E02430FF24C6500D74072FFF900845EF
:100D1400E060034307208F82020CC4E582900854EC
:100D2400F0E0FFC4540FF582C007120CFFD0075344
:100D3400070F8F82020CFFE582900855F090084B54
:100D4400E0FCA3E0FDA3E0FEA3E0FF90084FE0FB7E
:100D5400900855E0FA7920EB2BF521EF2354014557
:100D640021FBEC2CFCED33FDEE33FEEF33FFC3EB44
:100D74009A4007EBC39AFB43040119E970D9900820
:100D84004BECF0EDA3F0EEA3F0EFA3F090084FEBE3
:100D9400F022AF83E58290085DF0EFA3F090085D48
:100DA400E0FEA3E0FF900846EEF0EFA3F0900856B3
:100DB400E0FDA3E0FEA3E0FF900848EDF0EEA3F011
:100DC400EFA3F0900850E4F0A3F0900859E0FDA3DD
:100DD400E0FEA3E0FF8D828E838FF01216C6FC9096
:100DE400085974012DF0E43EA3F0EFA3F0EC700376
:100DF400021682BC2502800302167A90085FE4F092
:100E0400900860F0900861F0900862F0900863F038
:100E1400900864F0900865F0900866F0900868F017
:100E2400900869F0A3F090086B14F0A3F0900859AF
:100E3400E0FDA3E0FEA3E0FF8D828E838FF0121607
:100E4400C6FBA3AD82AE83900859EDF0EEA3F0EF9C
:100E5400A3F090086FEBF0BB25088B82120CC40240
:100E64000DCEBB30005003020F2FEB24C6500302FB
:100E74000F2F90086BE0F512A3E0F51374FFB51281
:100E840063B51360C005C006C007900869E0FAA303
:100E9400E0FF900878EAF0EFA3F090000AC005C0E4
:100EA400031216A6AE82AF83D003D0058B057A0059
:100EB400ED2EFEEA3FFFEE24D0FEEF34FFFF900854
:100EC40069EEF0EFA3F0D007D006D005900869E0F2
:100ED400F5F0A3E045F06003020E3C900860740155
:100EE400F0020E3CC005C006C007900878E512F079
:100EF400E513A3F090000AC006C005C0031216A6AD
:100F0400AA82AF83D003D005D0067E00EB2AFAEE86
:100F14003FFFEA24D0FAEF34FFFF90086BEAF0EFCA
:100F2400A3F0D007D006D005020E3C90086FE0FB7A
:100F3400BB2E2FC005C006C00790086BE0FAA3E0E3
:100F4400FFBAFF05BFFF028009D007D006D0050213
:100F54000E3CD007D006D00590086BE4F0A3F00255
:100F64000E3CBB61004014EB2485400F90086F7465
:100F7400DF5BF09008457401F08005900845E4F0CB
:100F840090086FE0FBBB20028075BB2B028067BB1F
:100F94002D028059BB4202806FBB4302807CBB445C
:100FA40003021226BB460302124CBB4803020E3C4A
:100FB400BB4903021226BB4A03020E3CBB4C02800F
:100FC40050BB4F03021234BB5003021194BB5302B3
:100FD4008077BB5403020E3CBB550302123CBB5842
:100FE40003021244BB5A03020E3C02125490085FDF
:100FF4007401F0020E3C9008617401F0020E3C9002
:1010040008627401F0020E3C9008647401F0020E50
:101014003C9008657401F0020E3C900864E0600E98
:1010240090085CE014F9F090086FE7F0800F9008E6
:101034005CE024FEFFF08F0190086FE7F090086FEA
:10104400E0F582120CC402126390085CE024FDFFF8
:10105400F08F018705098706098707191990084B3E
:10106400EDF0EEA3F0EFA3F08D828E838FF01216D5
:101074008E85821285831390086BE0FAA3E0FDBA93
:10108400FF0DBDFF0A90086BE512F0E513A3F09085
:10109400085FE0704B900869E0FAA3E0FDC3E51235
:1010A4009AE5139D503A900869EAC39512F0ED95BC
:1010B40013A3F0900869E0FAA3E0FD8A068D071AED
:1010C400BAFF011DEE4F6010758220C005C00212E8
:1010D4000CC4D002D00580E3900869EAF0EDA3F0D7
:1010E40090086BE0F515A3E0F51690084BE0FAA321
:1010F400E0FDA3E0FF8A828D838FF01216C6F514FB
:10110400603CC3E4951574808516F063F08095F017
:10111400502C151574FFB515021516851482120C82
:10112400C490084BE0FAA3E0FDA3E0FF0ABA000173
:101134000D90084BEAF0EDA3F0EFA3F080AC90081B
:101144005FE07003021263900869E0FEA3E0FFC34E
:10115400E5129EE5139F4003021263900869EEC3F3
:101164009512F0EF9513A3F0900869E0FEA3E0FF59
:101174008E028F051EBEFF011FEA4D700302125B33
:10118400758220C007C006120CC4D006D00780E0C8
:1011940090085CE024FDFDF08D018717098718098C
:1011A4008719191990084BE517F0E518A3F0E5190C
:1011B400A3F090084DE0FDBD8000400890086F74D6
:1011C40043F08020BD6000400890086F7450F080A8
:1011D40013BD4000400890086F7449F080069008E1
:1011E4006F7458F090086FE0FDF582C005120CC4CE
:1011F40075823A120CC4758230120CC4758278124E
:101204000CC4D005BD4902800EBD5002800990086F
:101214004CE0F582120D1F90084BE0F582120D1F71
:10122400803D9008637401F0900868740AF0802F80
:101234009008687408F08027900868740AF0801F8A
:101244009008687410F080179008667401F0800F9D
:101254008B82120CC48008900869EEF0EFA3F09022
:101264000866E0607190085CE024FCFFF08F018761
:101274000309870509870609870719191990084B77
:10128400EBF0EDA3F0EEA3F0EFA3F090084B744D58
:10129400F07417A3F07480A3F090084BE0F517A343
:1012A400E0F518A3E0F51974012517FAE43518FBE5
:1012B400AF1990084BEAF0EBA3F0EFA3F085178287
:1012C4008518838519F01216C6FF7003020DCE8FA0
:1012D40082120CC480C3900868E0F515E070030224
:1012E4000DCE900864E0604790085CE014F9F08744
:1012F400067D007B007A0090084BEEF0EDA3F0EB46
:10130400A3F0EAA3F0900863E060030213A9900835
:101314004BE0FAA3E0A3E0A3E07B007D007E009015
:10132400084BEAF0EBA3F0EDA3F0EEA3F080769087
:101334000865E0602890085CE024FCFEF08E0187DC
:101344000209870309870509870619191990084BAB
:10135400EAF0EBA3F0EDA3F0EEA3F0804890085C74
:10136400E024FEFEF08E01870509870619EE339509
:10137400E0FBFA90084BEDF0EEA3F0EBA3F0EAA348
:10138400F0900863E0701E90084BE0FAA3E0FBA322
:10139400E0A3E07D007E0090084BEAF0EBA3F0EDC3
:1013A400A3F0EEA3F0900863E0603D90084BE0A347
:1013B400E0A3E0A3E030E72B90084BE0FAA3E0FBC6
:1013C400A3E0FDA3E0FEC3E49AFAE49BFBE49DFDE5
:1013D400E49EFE90084BEAF0EBA3F0EDA3F0EEA33D
:1013E400F08005900863E4F09008677401F0751AC2
:1013F40075751B08E4F512F51390084FE4F0851594
:1014040082120D3B900867E0703390084FE0C4549B
:10141400F0F51790084FE0C4540F4517F517851AD7
:1014240082851B83E0FFE5174207851A82851B83AB
:10143400EFF0151A74FFB51A02151B800B90084FB4
:10144400E0851A82851B83F00512E4B512020513A8
:10145400900867E0B40100E433F090084BE0FAA38D
:10146400E0FBA3E0FEA3E0FFEA4B4E4F708B900835
:1014740076E51AF0E51BA3F090086DE512F0E5138C
:10148400A3F0900869E0F5F0A3E045F07009900836
:10149400697401F0E4A3F0900860E0FFE0703E900E
:1014A400085FE07038900869E0FDA3E0FE90086DE5
:1014B400E0FB0B7A00C3EB9DEA9E5019758220C0B5
:1014C40007C006C005120CC4D005D006D0071DBD48
:1014D400FF011E80D8900869EDF0EEA3F090086338
:1014E400E0602075822DC007120CC4D007900869F3
:1014F400E024FFFDA3E034FFFE900869EDF0EEA3C5
:10150400F0805690086DE0F5F0A3E045F0604A9055
:101514000861E0602075822BC007120CC4D00790CC
:101524000869E024FFFDA3E034FFFE900869EDF0B4
:10153400EEA3F08024900862E0601E758220C0074C
:10154400120CC4D007900869E024FFFDA3E034FF27
:10155400FE900869EDF0EEA3F090085FE07044900F
:10156400086DE0F51AA3E0F51B900869E0FAA3E022
:10157400FBC0078A068B071ABAFF011BC3E51A9E34
:10158400E51B9FD007504FEF60047E3080027E2021
:101594008E82C007C003C002120CC4D002D003D094
:1015A4000780CE900869E0FEA3E0FF90086DE0F5A7
:1015B4001AA3E0F51BC3E51A9EE51B9F500F900884
:1015C40069EEC3951AF0EF951BA3F080119008699A
:1015D400E4F0A3F08008900869EAF0EBA3F0900827
:1015E40076E0FEA3E0FF90086DE0F51AA3E0F51B9A
:1015F400AA1AAD1B151A74FFB51A02151BEA4D6021
:1016040044900867E0B40100E433F0900867E070A8
:10161400130EBE00010F8E828F83E0C4540F900816
:101624004FF0800E8E828F83E0FD53050F90084F9C
:10163400EDF090084FE0F582C007C006120CFFD011
:1016440006D00780AB90085FE07003020DCE9008CF
:1016540069E0FEA3E0FF8E038F051EBEFF011FEBB2
:101664004D7003020DCE758220C007C006120CC453
:10167400D006D00780E08C82120CC4020DCE9008F4
:0A16840050E0FEA3E08E82F5832201
:0B174D003C4E4F20464C4F41543E00E4
:10168E00AA82AB831216C66003A380F8C3E5829AC2
:10169E00F582E5839BF58322AA83AB828BF09008BB
:1016AE0078E0A4F8A9F08AF0E0A429F98BF0A3E081
:0816BE00A429F5838882222291
:0D004E007581241216E2E58260030200496C
:1016C60020F71430F6148883A88220F507E6A8834D
:1016D60075830022E280F7E49322E02275820022DD
:00000001FF
