:0300000002004CAF
:100008000000E2FBEAF2802C0000E0FBEAF080242A
:10001800E6B50202EBF62200E2B50202EBF222009C
:10002800E0B50202EBF02230F6E0A88220F5D3EA30
:10003800C6F582228B822230F6E6A88220F5D98086
:01004800CFE8
:0300A5000200490D
:03004900020CDBCB
:1000A800AE82AF83EE4F602D05A105A105A105A184
:1000B80005A105A105A105A105A105A105A105A108
:1000C80005A105A105A105A105A105A105A11EBEC2
:1000D800FF011F80CF22AE82AF83EE4F60159003E1
:1000E800E8C007C0061200A8D006D0071EBEFF0150
:1000F8001F80E722AE82AF8310990280FB8E998E13
:10010800828F832210980280FBAE997F008E828FA7
:100118008322C008858108AF82E50824FDF8E6C47B
:100128002354E0420775A15575A1AA8FB253B3E0D5
:10013800E50824FCF8E642B375A1FFD0082274064E
:10014800C0E0C0E075821812011A1581158122C01D
:1001580008858108AC82AD83AEF0FFE50824FDF880
:10016800E6600C43C60143C40843C50C43CE10C225
:100178009FD29EC29DD29C53C8CF438780742F556F
:10018800894420F58943C9A0C004C005C006C0073A
:10019800908D8075F05BE4120D3AAC82AD83E581F9
:1001A80024FCF5810CBC00010DEDC313CC13CCC3AA
:1001B800E49CF58DD28ED299D00822E582FF75F0A5
:1001C80003A42401FD740835F0FE8D828E83E4F0CB
:1001D8008D828E83A3F0EF600475E5002275E4003C
:1001E80022C2EA75E28075E3009024477448F090D3
:1001F800244DE4F090244CF090244FF090244E04C9
:10020800F075D40075D60075E28975D24075D8FFAF
:100218007582001201C37582011201C375E10322C0
:10022800AF82E5E35402FE747F5F4EF5E322E58278
:10023800600753E2BF53D27F2243E24022AF82904D
:1002480006007408F0758200C00712022875820142
:10025800120236D007EF701374FB55E44402F5E43C
:1002680090000F1200DE53E4FD8014BF011174FBEF
:1002780055E54402F5E590000F1200DE53E5FD90C8
:1002880000FA1200A8C2D822E582FF75F003A42460
:1002980001FD740835F0FE8D038E048B828C83E09B
:1002A800FABA010050078B828C837401F0EF702C2E
:1002B800E5DB30E356E5E420E01BE5DB30E20D8DBD
:1002C800828E83A3A3E4F043E40480098D828E83A5
:1002D800A3A37401F043E40175820022BF012CE559
:1002E800DB30E727E5E520E01BE5DB30E60D8D8216
:1002F8008E83A3A3E4F043E50480098D828E83A353
:10030800A37401F043E5017582002275821622C0AC
:1003180008858108E58275F003A42401FE74083578
:10032800F0FF8E828F83A3E0F582C007C006120219
:1003380028D006D0078E828F83A3A3E0F58212020D
:1003480036D00822C008858108C082E5812405F5D9
:1003580081E50824FDF886D4E50824FDF886D6E56D
:10036800082404F8E4F608F6A80808E6C4540FFCC4
:10037800BC0103EC8001E4FBE4BC090104FAE508D4
:1003880024FBF8A9080909E6F708E609F7A8080808
:1003980086D5C2D97EC87F00EE4F602420D921902F
:1003A8000001C007C006C004C003C0021200A8D0E4
:1003B80002D003D004D006D0071EBEFF011F80D88C
:1003C80075D50020D9067582FE02055020D9030292
:1003D800051730DE06758200020550AFD9E50824FE
:1003E80006F8740F5FF6E5082406F8E4B60E010473
:1003F800FE600DE5082406F8742046F582020550D3
:10040800E5082406F8E4B60A0104FD6044A80808D3
:1004180008E60846700DE5082406F8742046F582BB
:10042800020550C002A80808088602088607C3EA21
:1004380094FFEF94FFD002500AA808080816B6FFE8
:10044800020816E5082404F816B6FF020816020585
:100458001AEB700BEA704ABC0D02800302051230D9
:10046800DE06758200020550E5082406F8B6020685
:10047800758200020550EE7003ED600DE508240654
:10048800F8742046F582020550E5082406F8E6705F
:100498000302051AE5082406F8742046F5820205C9
:1004A8005030DE06758200020550E50824FDF8E6A6
:1004B800600DE5082406F8E4B60B0104FF800BE59F
:1004C800082406F8E4B6030104FFEF60057582000E
:1004D8008076EE7003ED600CE5082406F87420467B
:1004E800F5828064E5082406F8B6030AE5082406C0
:1004F800F8B60B02801CE5082406F8E66014E50847
:100508002406F8742046F582803E7582FE8039758F
:10051800D8FF90000FC004C003C0021200A8D00288
:10052800D003D004E5082404F806B600020806E55E
:10053800082404F88605088606C3ED94C8EE9400DE
:100548005003020395758220850881D00822C008CF
:10055800E581F5082407F581AE82AF83C007C006A0
:100568007416C0E0741FC0E07480C0E0120E0A1553
:100578008115811581E50824FBF8E5082405F9E6CD
:10058800F708E609F708E609F79000C81200A8D0AE
:1005980006D007E5082405F8E608466015E50824AE
:1005A80005F886820886830886F0E4120D1FA312D8
:1005B8000D1F75D708C007C0067410C0E07427C0A7
:1005C800E0E4C0E07582D012034CAA82158115813F
:1005D8001581D006D007EA60058A820208B6C006EF
:1005E800C00775D6D075D4D075D701900107E0FF44
:1005F8007A00900106E07E004202EE4207E50824F8
:1006080003F8A60208A607D007D006E5082403F8D1
:10061800E608467003020873EE4F700302087390F1
:100628000100E020E70302077BC007C006E50824B5
:1006380003F8E6C0E008E6C0E07428C0E0741FC014
:10064800E07480C0E0120E0AE58124FBF581D00633
:10065800D007E5082403F8E60846700302077590FA
:10066800012CC007C0061200A87410C0E07427C08F
:10067800E0C0D475829012034CAD821581158115A6
:1006880081D006D007ED60058D820208B6ACD17D19
:1006980000E5082403F8C3EC96ED08965004ACD1A5
:1006A800800AE5082403F886040886058C05E50811
:1006B8002403F88602088603A80808A60508760019
:1006C800A80808EAC396FAEB0896FBE5082403F89D
:1006D800A60208A603E5082405F8E608466036E5FC
:1006E800082405F886820886830886F0120E43FBE4
:1006F800A3120E43FDA80808E62BFB08E63DFDE51E
:10070800082405F886820886830886F0EB120D1FF8
:10071800A3ED120D1F7D00C3ED9C5014ED2EFAE4DD
:100728003FFB8D82758300E08A828B83F00D80E722
:10073800EC2EFEE43FFFACD17D00C007C006C0042C
:10074800C0057444C0E0741FC0E07480C0E0120E9D
:100758000AE58124FBF581D006D007E5D1600E902B
:100768000600E0FDC3E5D19D400302065A75D70097
:10077800020873E5082403F8E6C0E008E6C0E07460
:1007880057C0E0741FC0E07480C0E0120E0AE58113
:1007980024FBF581E5082403F8E6084670030208FF
:1007A800739000C81200A8900600E0FE7F00E508DC
:1007B8002403F8C3E69E08E69F9200500AE5082441
:1007C80003F886060886078ED7AED77F00C006C016
:1007D800077473C0E0741FC0E07480C0E0120E0A92
:1007E800E58124FBF5817410C0E07427C0E0C0D611
:1007F80075821012034CAF82158115811581EF6047
:10080800058F820208B6AFD7E5082403F8860508E5
:1008180086067C00EDC39FFDEE9CFEE5082403F8E8
:10082800A60508A606E5082405F8E60846700302AA
:10083800079CE5082405F886820886830886F01256
:100848000E43FEA3120E43FFADD77C00ED2EFEEC47
:100858003FFFE5082405F886820886830886F0EEBF
:10086800120D1FA3EF120D1F02079C9000C8120063
:10087800A8E5D760047F9080027F107410C0E074F0
:1008880027C0E074C0C0E08F8212034CAF8215818C
:1008980015811581EF60048F828013E5D77004F508
:1008A80082800BE5D17004F5828003758217850874
:1008B80081D00822C008858108AE82AF83E508246C
:1008C800FDF886047D00C007C006C005C004C0044A
:1008D800C0057485C0E0741FC0E07480C0E0120ECB
:1008E8000AE58124FBF581D004D005D006D0077B2A
:1008F80000E50824FDF8C3EB96501EC004C0058B24
:10090800027D01EB2EF582E43FF583E4938A828D24
:1009180083F00BD005D00480D8C004C005749CC0F7
:10092800E0741FC0E07480C0E0120E0AE58124FB69
:10093800F581D00822C008858108058105819006C7
:10094800007408F074AFC0E0741FC0E07480C0E0A9
:10095800120E0A1581158115817408C0E0901F0ECA
:100968001208BC1581AF080F7E007D40E4C0E0741A
:1009780002C0E0C007C006C005900601120556AFC8
:1009880082E58124FBF581EFFE60048E82804D7440
:10099800C4C0E0741FC0E07480C0E0120E0A158164
:1009A80015811581900608E0900600F0901F14E468
:1009B80093FF7E00A80808C3E69F08E69E501A74B5
:1009C800F1C0E0741FC0E07480C0E0120E0A158107
:1009D800158115817582178003758200850881D07D
:1009E8000822C00885810805810581AF827E00EF55
:1009F80075F003A42401FC740835F0FD7B00900019
:100A080064C007C006C005C004C0031200DE900021
:100A1800641200DED003D004D005D006D0078F8240
:100A2800C007C006C005C004C003120245D003D0E9
:100A380004D005D006D0077A00900001C007C00690
:100A4800C005C004C003C0021200DED002D003D02B
:100A580004D005D006D0078F82C007C006C005C0E5
:100A680004C003C002120290E582D002D003D00471
:100A7800D005D006D00760060ABA640040BBBA6445
:100A880055C004C0058F82C007C006C005C004C099
:100A9800031201C3D003D004D005D006D0078F02BB
:100AA8007D00C007C006C005C004C003C002C00561
:100AB800741BC0E07420C0E07480C0E0120E0AE528
:100AC8008124FBF581D003D004D005D006D007D00F
:100AD80005D004020BE5C004C005C007C005C0046A
:100AE800C003E4C0E08F821203171581D003D0043D
:100AF800D005D0078F027D00C007C005C004C00321
:100B0800C002C005743EC0E07420C0E07480C0E03C
:100B1800120E0AE58124FBF58112093DAE82D0034D
:100B2800D004D005D007D005D004EE706290060A34
:100B3800E0FF7E00900609E0FA7D00A80808EA4E6A
:100B4800F6ED4F08F6A80808860708860690060CF2
:100B5800E0FD7C0090060BE0FA7B00A80808EA4C50
:100B6800F6EB4D08F6A808088605088604C005C0F7
:100B780004C007C0067458C0E07420C0E07480C088
:100B8800E0120E0AE58124F9F5817582008059C0CA
:100B9800038E027B00C007C006C005C004C003C0A6
:100BA80002C0037472C0E07420C0E07480C0E01218
:100BB8000E0AE58124FBF581D003D004D0058C8290
:100BC8008D837402F0758201C005C004C00312024F
:100BD80036D003D004D005D006D007D0030BBB0A0B
:100BE800005003020A068E82850881D008227F0001
:100BF80010D803020CD8E5DB30E33B900801E06035
:100C080005E5E420E05C7582001201C390080174D8
:100C180001F0E4C0E0C0E07480C0E07420C0E0747B
:100C280080C0E0120E0AE58124FBF581758200126E
:100C380009EAAF82802C900801E0FEBE0100402244
:100C48007582001201C3E4C0E0C0E074A1C0E07482
:100C580020C0E07480C0E0120E0AE58124FBF58113
:100C68007F16E5DB30E73B900804E06005E5E5200A
:100C7800E05E7582011201C39008047401F0C0E0BF
:100C8800E4C0E07480C0E07420C0E07480C0E0126A
:100C98000E0AE58124FBF5817582011209EAAF820B
:100CA800802E900804E0FEBE0100402475820112E7
:100CB80001C37401C0E0E4C0E074A1C0E07420C0C6
:100CC800E07480C0E0120E0AE58124FBF5817F16EE
:100CD8008F82221201467401C0E090C200F5F0E450
:100CE800120157158174C5C0E07420C0E07480C03B
:100CF800E0120E0A1581158115811201E974CEC022
:100D0800E07420C0E07480C0E0120E0A15811581DD
:070D18001581120BF680FBB0
:101F0E008006000100001200686F73744374726CD7
:101F1E005472616E736665720A0052656D61696E08
:101F2E00696E6720627974657320746F20726561C3
:101F3E00642025640A005265636569766564202510
:101F4E00692062797465730A0052656D61696E6904
:101F5E006E6720627974657320746F20777269746E
:101F6E00652025690053656E64696E6720256920BA
:101F7E0062797465730A0066696C6C547842756692
:101F8E006665722025692062797465730A00666938
:101F9E006C6C547842756666657220646F6E650A65
:101FAE000067657444657669636544657363726939
:101FBE0070746F720A004465766963652064657398
:101FCE0063726970746F72207265717565737420B7
:101FDE0073656E74207375636365737366756C6C6D
:101FEE00790A005265636569766564207061636B7A
:101FFE00657420697320736D616C6C6572207468F2
:10200E00616E2065787065637465640A0046616967
:10201E006C656420746F20656E61626C6520726FF2
:10202E006F742068756220706F72742025690A00C3
:10203E00726F6F742068756220706F7274202569DC
:10204E0020656E61626C65640A005649443A203020
:10205E0078253034582C205049443A203078253099
:10206E0034580A004572726F72203D202530325866
:10207E000A0044657669636520617420726F6F741F
:10208E002068756220256920636F6E6E65637465C6
:10209E00640A0044657669636520617420726F6F0F
:1020AE00742068756220256920646973636F6E6E93
:1020BE0065637465640A00537461727475700A0006
:0720CE0052656164790A000C
:06007B00E478FFF6D8FD59
:100059007900E94400601B7A009020E0780775A0D8
:1000690008E493F2A308B8000205A0D9F4DAF275FE
:02007900A0FFE6
:100D1F0020F71130F6138883A88220F509F6A883EF
:0B0D2F007583002280FEF280F5F022A8
:100081007800E84400600A790075A006E4F309D815
:10009100FC7807E84402600C7903900600E4F0A3C1
:0400A100D8FCD9FAB4
:100D3A00C008858108C082C083C0F0C0E07A007B09
:100D4A00007E007F007D20A80808080808E62354D2
:100D5A0001FCA80808E626F608E633F608E633F6A4
:100D6A0008E633F6EA2AFAEB33FBEE33FEEF33FFFB
:100D7A00EC6003430201E50824FAF8C3EA96EB089B
:100D8A0096EE0896EF0896401CE50824FAF8EAC39E
:100D9A0096FAEB0896FBEE0896FEEF0896FFA8086F
:100DAA0008E64401F6DDA0A80808868208868308BA
:100DBA0086F008E6850881D00822C0088581087E69
:100DCA00008E831200FCD00822C008858108AD82FB
:100DDA00AE83AFF0E50824FDF8E6C0E0C005C00622
:100DEA00C007E4C0E0C0E0C0E0900DC4120FA0AE9E
:100DFA0082AF83E58124F9F5818E828F83D0082220
:100E0A00C008E581F50824FBFFC007E50824FBF8C4
:100E1A00E6C0E008E6C0E008E6C0E0E4C0E0C0E002
:100E2A00C0E0900DC4120FA0AE82AF83E58124F911
:090E3A00F5818E828F83D008221D
:0D004C00758120121EF2E58260030200495A
:100E430020F71430F6148883A88220F507E6A883D8
:100E530075830022E280F7E49322E022C0088581B3
:100E630008AF8274302FFF24C6501074072FFFE59C
:100E73000824FDF8E6600474202FFFE50824F8F841
:100E8300E6C0E008E6C0E008E6C0E0120E93800F7B
:100E9300E50824FBF8E6C0E008E6C0E08F822215EF
:100EA3008115811581D00822C008858108E582FF5C
:100EB300C4540FFEC007E50824F8F8E6C0E008E6CE
:100EC300C0E008E6C0E0E50824FBF8E6C0E008E679
:100ED300C0E0E50824FDF8E6C0E08E82120E5FE56F
:100EE3008124FAF581D00753070FE50824F8F8E6C3
:100EF300C0E008E6C0E008E6C0E0E50824FBF8E649
:100F0300C0E008E6C0E0E50824FDF8E6C0E08F8213
:100F1300120E5FE58124FAF581D00822C00885818D
:100F2300080581AF828F01870309870409870509B3
:100F3300870619191974042FF8C000A80808762029
:100F4300D000C001E626FAEE2354014202A602EBCA
:100F53002BFBEC33FCED33FDEE33FEC000E5082440
:100F6300FDF8C3EA96D000D00140148607C000E51F
:100F73000824FDF8EFC396FFD000A607430301C082
:100F830000A8080816A80808E6D00070B5A703094A
:100F9300A70409A70509A7061581D00822C008855B
:100FA3008108C082C083E5812422F581E508240FEE
:100FB300F8E4F608F6E508240EF8E5082415F6E546
:100FC30008240EF8E508240AF9E6F7E508240EF8E4
:100FD300E5082409F9740226F7E508240EF8E50864
:100FE3002411F9E604F7E508240EF8E5082403F9CB
:100FF300E6F7E508241FC8E5082404C82405F6E538
:1010030008240EF8E5082405F9E6F7E508240EF8A8
:10101300E5082406F9E6F7E508240EF8E5082407B1
:10102300F9E6F7E508240EF8E5082408F9E6F7E5FC
:101033000824F8F886060886050886048E828D83C0
:101043008CF0120E43FFE50824F8F874012EF6E441
:101053003D08F608A604EFFE7003021E46BE2502F5
:101063008003021E10C200C201C202C203C204C234
:1010730005C206C207E508241AF87600E508241B12
:10108300F8E4F608F6E508241DF876FF0876FFE590
:101093000824F8F8E508240BF9E6F708E609F70849
:1010A300E609F7E508240BF886820886830886F0AC
:1010B300120E43FAA31818A68208A683E508240B88
:1010C300F8E50824F8F9E6F708E609F708E609F76A
:1010D300BA2536E50824FBF8E6C0E008E6C0E008D8
:1010E300E6C0E01210EB800DA80808E6C0E008E6B1
:1010F300C0E08A8222158115811581E508240FF845
:1011030006B600020806021032BA3000500302117C
:10111300B1EA24C650030211B1E508241DF8B6FF55
:101123005008B6FF4CC002C020E508241BF8E6C0F7
:10113300E008E6C0E090000A121E56AF82AE8315A7
:10114300811581D020D0028A037D00EB2FFFED3E75
:10115300FEE508241BF8EF24D0F6EE34FF08F6E58D
:1011630008241BF8E6084660030210A6D201021009
:10117300A6C002C020E508241DF8E6C0E008E6C0CA
:10118300E090000A121E56AE82AF8315811581D0FE
:1011930020D0028A047D00EC2EFEED3FFFE50824FB
:1011A3001DF8EE24D0F6EF34FF08F60210A6BA2E8F
:1011B3001DE508241DF8B6FF0608B6FF02800302EA
:1011C30010A6E508241DF8E4F608F60210A6BA6195
:1011D300004011EA2485400C5302DFE5082414F88B
:1011E30076018007E5082414F87600BA2002806EA1
:1011F300BA2B028064BA2D02805ABA42028064BAC2
:1012030043028069BA4403021739BA460302175FDF
:10121300BA48030210A6BA4903021739BA4A0302AD
:1012230010A6BA4C028041BA4F03021744BA5003C6
:1012330002154BBA53030212D4BA54030210A6BACE
:10124300550302174DBA5803021756BA5A03021030
:10125300A6021763D2000210A6D2020210A6D2037E
:101263000210A6D2050210A6D2060210A63005135C
:10127300E50824F7F8E614F9E50824F7F8A601874A
:10128300068014E50824F7F8E624FEFDE50824F7B4
:10129300F8A6058D018706C020E50824FBF8E6C003
:1012A300E008E6C0E008E6C0E01212B1800DA8082D
:1012B30008E6C0E008E6C0E08E822215811581159C
:1012C30081D020E508240FF806B6000208060217AD
:1012D300B0E508240EF88601E50824F7F8E624FDB6
:1012E300FEE50824F7F8A606A8068604088605087E
:1012F3008606A70409A70509A70619198C828D83F9
:101303008EF0C001C020121EF6C8E5082412C8A63C
:101313008208A683D020D001E508241DF8B6FF1863
:1013230008B6FF14E5082412F8C001E508241DF9E6
:10133300E6F708E609F7D0013000030213EFE508EA
:101343002412F8C001E508241BF9C3E69708E6094F
:1013530097D00140030213EFE508241BF8C001E511
:10136300082412F9E6C397F608E60997F6D001E5D3
:1013730008240FF88604088603E508241BF8860270
:101383000886058A068D071ABAFF011DEE4F6048CD
:10139300C005C004C003C002C001C020E50824FB8F
:1013A300F8E6C0E008E6C0E008E6C0E01213B48047
:1013B3000EA80808E6C0E008E6C0E0758220221502
:1013C3008115811581D020D001D002D003D004D063
:1013D300050CBC00AE0B80ABE508240FF8A604088F
:1013E300A603E508241BF8A60208A605E508241DA4
:1013F300F88606088607E508240FF8C001E50824E7
:101403000BF9E6F708E609F7D00187030987040912
:10141300870519198B828C838DF0120E43FD70039F
:101423000214A4C3E49E74808FF063F08095F0509F
:10143300701EBEFF011FC007C006C001C020E50823
:1014430024FBF8E6C0E008E6C0E008E6C0E01214BA
:1014530056800DA80808E6C0E008E6C0E08D8222A9
:10146300158115811581D020D001D006D007E5085C
:10147300240BF8C001E508240BF9740126F7E408EE
:101483003609F7D001870309870409870519190B62
:10149300BB00010CA70309A70409A7051919021426
:1014A3000DE508240BF8E508240FF9E6F708E6092B
:1014B300F72000030217B0E5082412F8E508241BFF
:1014C300F9C3E69708E6099740030217B0E5082435
:1014D3001BF8E5082412F9E6C397F608E60997F620
:1014E300E508240BF88606088602E508241BF8861F
:1014F300040886058C038D071CBCFF011DEB4F7090
:101503000302179CC006C005C004C002C020E50842
:1015130024FBF8E6C0E008E6C0E008E6C0E01215E8
:1015230026800EA80808E6C0E008E6C0E075822021
:1015330022158115811581D020D002D004D005D089
:10154300060EBE00AF0A80ACE508240AF88601E562
:101553000824F7F8E624FDFFE50824F7F8A6078F2B
:101563000086030886060886071818A70309A70636
:1015730009A7071919E5082409F886008607BF801B
:101583000040047E438014BF600040047E50800B03
:10159300BF400040047E4980027E58C006C020E55B
:1015A3000824FBF8E6C0E008E6C0E008E6C0E01265
:1015B30015B7800DA80808E6C0E008E6C0E08E82F3
:1015C30022158115811581D020D006E508240FF856
:1015D300740126FBE40836FFC007C006C003C02021
:1015E300E50824FBF8E6C0E008E6C0E008E6C0E052
:1015F3001215F8800EA80808E6C0E008E6C0E075FA
:10160300823A22158115811581D020D003D006D0CE
:10161300070BBB00010FC007C006C003C020E508CD
:1016230024FBF8E6C0E008E6C0E008E6C0E01216D6
:1016330036800EA80808E6C0E008E6C0E0758230F0
:1016430022158115811581D020D003D006D0070B38
:10165300BB00010FC007C006C003C020E50824FB80
:10166300F8E6C0E008E6C0E008E6C0E012167480C1
:101673000EA80808E6C0E008E6C0E07582782215E7
:101683008115811581D020D003D006D0070BBB0074
:10169300010FBE4902804EBE50028049E508241165
:1016A300F886008606C007C003C020E50824FBF8BF
:1016B300E6C0E008E6C0E008E6C0E0A80808E6C027
:1016C300E008E6C0E0E5082414F8E6C0E08E8212E4
:1016D3000EABE58124FAF581D020D003D007740244
:1016E3002BFBE43FFFE508240AF886018706C007C1
:1016F300C003C020E50824FBF8E6C0E008E6C0E02C
:1017030008E6C0E0A80808E6C0E008E6C0E0E5088F
:101713002414F8E6C0E08E82120EABE58124FAF5BC
:1017230081D020D003D007E508240FF874022BF6EC
:10173300E43F08F68077D204E508241AF8760A8095
:101743006CE508241AF876088063E508241AF8760D
:101753000A805AE508241AF876108051D207804D82
:10176300C020E50824FBF8E6C0E008E6C0E008E690
:10177300C0E012177A800DA80808E6C0E008E6C0AA
:10178300E08A8222158115811581D020E508240F76
:10179300F806B6000208068014E508240FF8A6062A
:1017A30008A602E508241BF8A60408A605200703DB
:1017B300021881E5082403F88601E50824F7F8E612
:1017C30024FCFFE50824F7F8A6078F0086040886A3
:1017D30005088606088607181818A70409A7050927
:1017E300A70609A707191919E5082403F88601773D
:1017F300D50977200977801919E508240FF886069B
:10180300088607C006C007870309870409870519E7
:101813001974012BFAE43CFE8D07A70209A70609F8
:10182300A70719198B828C838DF0120E43FBFDD011
:1018330007D006EB7003021032C007C006C001E5F3
:101843000824FBF8E6C0E008E6C0E008E6C0E012C2
:101853001857800DA80808E6C0E008E6C0E08D82AE
:1018630022158115811581D001D006D0070EBE0047
:10187300010FE508240FF8A60608A6078085E508EA
:10188300241AF8E67003021032E5082404F88607E8
:1018930030055BE5082406F88601C001E50824F756
:1018A300F9E714F8E50824F7F9A700D00186067DC7
:1018B300007C007B00A70609A70509A70409A70365
:1018C30019191930040302197F870309870409874B
:1018D300050987061919197C007D007E00A70309F5
:1018E300A70409A70509A70619191902197F3006C4
:1018F30035E5082415F9E50824F7F8E624FCFEE5A8
:101903000824F7F8A6068E008603088604088605D1
:10191300088606181818A70309A70409A70509A725
:10192300061919198056E5082405F88601E50824E7
:10193300F7F8E624FEFEE50824F7F8A6068E0086EF
:101943000508860618EE3395E0FCFBA70509A706F4
:1019530009A70409A7031919192004208703098774
:10196300040987050987061919197D007E00A70355
:1019730009A70409A70509A706191919300446E59B
:10198300082407F88601870309870409870509875F
:1019930006191919EE30E72B870309870409870510
:1019A300098706191919C3E49BFBE49CFCE49DFD1C
:1019B300E49EFEA70309A70409A70509A7061919A9
:1019C300198002C204D2058F017F007E00C001E5A9
:1019D300082408F9740427F8D0017600C000E5084C
:1019E3002408F88605D000C007C006C001C000C0A7
:1019F300208500F0E508241AF8E6C0E08D82120F76
:101A03001F1581D020D000D001D006D007200513A8
:101A1300E6C454F0FDE6C4540F4205E74205A705AA
:101A23001980048605A7050FBF00010EB205C0008B
:101A3300E5082408F88605A80586020886030886B3
:101A430004088605D000EA4B4C4D70818905E508F2
:101A5300241BF9E70947700AE508241BF9770109F4
:101A63007700300103021B1A300003021B1AE5083A
:101A7300240FF98704098703E508241BF9C000E54F
:101A8300082412F8E7F609E708F6D000C0058F022C
:101A93000A7D00E5082412F9C3EA97ED0997D005FA
:101AA3005057C007C006C005C004C003C000C02013
:101AB300E50824FBF9E7C0E009E7C0E009E7C0E077
:101AC300121AC8800EA90809E7C0E009E7C0E0754B
:101AD300822022158115811581D020D000D003D01A
:101AE30004D005D006D0070CBC00010BE508241276
:101AF300F917B7FF0209178093E508240FF9A70424
:101B030009A703E5082412F9C000E508241BF8E738
:101B1300F609E708F6D000300456C007C006C00532
:101B2300C000C020E50824FBF9E7C0E009E7C0E0F6
:101B330009E7C0E0121B3C800EA90809E7C0E009D1
:101B4300E7C0E075822D22158115811581D020D043
:101B530000D005D006D007E508240FF907B7000227
:101B63000907E508241BF917B7FF020917021C2808
:101B7300EF4E7003021C28300255C007C006C00593
:101B8300C000C020E50824FBF9E7C0E009E7C0E096
:101B930009E7C0E0121B9C800EA90809E7C0E00911
:101BA300E7C0E075822B22158115811581D020D0E5
:101BB30000D005D006D007E508240FF907B70002C7
:101BC3000907E508241BF917B7FF020917805630E8
:101BD3000353C007C006C005C000C020E50824FBAE
:101BE300F9E7C0E009E7C0E009E7C0E0121BF480B1
:101BF3000EA90809E7C0E009E7C0E07582202215B5
:101C03008115811581D020D000D005D006D007E5FD
:101C130008240FF907B700020907E508241BF91781
:101C2300B7FF020917300003021CC0E508240FF9AF
:101C33008704098703E508241BF9C000E50824127B
:101C4300F8E7F609E708F6D000C005E5082412F91D
:101C53008702098705E5082412F917B7FF02091758
:101C6300C3EF9AEE9DD005507B3001047A30800299
:101C73007A20C007C006C005C004C003C000C0204E
:101C8300E50824FBF9E7C0E009E7C0E009E7C0E0A5
:101C9300121C98800DA90809E7C0E009E7C0E08A93
:101CA3008222158115811581D020D000D003D00464
:101CB300D005D006D0070CBC008F0B808CE5082420
:101CC3001BF9C3EF97EE0997500FE508241BF9E7BB
:101CD300C39FF709E79EF78029E508241BF9E4F77A
:101CE30009F7801EE508240FF9A70409A703E508EF
:101CF3002412F9C000E508241BF8E7F609E708F603
:101D0300D0008D01C000E508240FF886040886057D
:101D1300D000CECFCE8E028F031EBEFF011FEA4B33
:101D23006073B20520050809E7C4540FF6800687DF
:101D330003740F5BF68603C007C006C005C004C06A
:101D430001C000C0208500F0E50824FBF8E6C0E0F0
:101D530008E6C0E008E6C0E0A8F08500F0A808089F
:101D6300E6C0E008E6C0E0A8F08500F0E50824142A
:101D7300F8E6C0E08B82120E5FE58124FAF581D08C
:101D830020D000D001D004D005D006D0070CBC0071
:101D9300010D021D18E508240FF8A60408A6052066
:101DA30000030210328C068D07E508241BF8860415
:101DB3000886058C028D031CBCFF011DEA4B7003D2
:101DC300021032C007C006C005C004E50824FBF8B2
:101DD300E6C0E008E6C0E008E6C0E0121DE3800EBE
:101DE300A80808E6C0E008E6C0E075822022158155
:101DF30015811581D004D005D006D0070EBE000191
:101E03000FE508240FF8A60608A60780A6E5082410
:101E1300FBF8E6C0E008E6C0E008E6C0E0121E25D5
:101E2300800DA80808E6C0E008E6C0E08E8222150F
:101E33008115811581E508240FF806B6000208060E
:101E4300021032E508240FF886820886838508810C
:031E5300D0082292
:0B20D5003C4E4F20464C4F41543E0053
:101E5600C008858108C082C083E5812405F581AF6D
:101E6600080FE5082403F8A607087600087640E57B
:101E76000824FCFD7E007F40E5082406FCF9A8083E
:101E8600088603E50824FCF886028BF0EAA4F70925
:101E9600A7F019EC04F88604C000A80808860374A5
:101EA600012DFAE43EFE8A828E838FF0120E438B5A
:101EB600F0A4FBE5082403F8740126FDE40836FEC9
:101EC6000886078D828E838FF0120E43FDE5082467
:101ED600FCF88607D0008DF0EFA42B2CF6870609B8
:101EE60087078E828F83850881D00822758200221B
:101EF600AA82AB83120E436003A380F8C3E5829ADD
:081F0600F582E5839BF58322BF
:00000001FF
